{
  "contracts/CeloDuels.sol": {
    "CeloDuelsMulti": {
      "abi": [
        {
          "inputs": [
            {
              "internalType": "address",
              "name": "_feeRecipient",
              "type": "address"
            }
          ],
          "stateMutability": "nonpayable",
          "type": "constructor"
        },
        {
          "anonymous": false,
          "inputs": [
            {
              "indexed": true,
              "internalType": "uint256",
              "name": "gameId",
              "type": "uint256"
            }
          ],
          "name": "GameCancelled",
          "type": "event"
        },
        {
          "anonymous": false,
          "inputs": [
            {
              "indexed": true,
              "internalType": "uint256",
              "name": "gameId",
              "type": "uint256"
            },
            {
              "indexed": true,
              "internalType": "address",
              "name": "player1",
              "type": "address"
            },
            {
              "indexed": false,
              "internalType": "enum CeloDuelsMulti.GameType",
              "name": "gameType",
              "type": "uint8"
            },
            {
              "indexed": false,
              "internalType": "uint256",
              "name": "stake",
              "type": "uint256"
            }
          ],
          "name": "GameCreated",
          "type": "event"
        },
        {
          "anonymous": false,
          "inputs": [
            {
              "indexed": true,
              "internalType": "uint256",
              "name": "gameId",
              "type": "uint256"
            },
            {
              "indexed": true,
              "internalType": "address",
              "name": "player2",
              "type": "address"
            }
          ],
          "name": "GameJoined",
          "type": "event"
        },
        {
          "anonymous": false,
          "inputs": [
            {
              "indexed": true,
              "internalType": "uint256",
              "name": "gameId",
              "type": "uint256"
            },
            {
              "indexed": true,
              "internalType": "address",
              "name": "winner",
              "type": "address"
            },
            {
              "indexed": false,
              "internalType": "uint256",
              "name": "prize",
              "type": "uint256"
            }
          ],
          "name": "GameSettled",
          "type": "event"
        },
        {
          "anonymous": false,
          "inputs": [
            {
              "indexed": true,
              "internalType": "uint256",
              "name": "gameId",
              "type": "uint256"
            },
            {
              "indexed": true,
              "internalType": "address",
              "name": "winner",
              "type": "address"
            },
            {
              "indexed": false,
              "internalType": "uint8",
              "name": "round",
              "type": "uint8"
            }
          ],
          "name": "RoundSettled",
          "type": "event"
        },
        {
          "inputs": [],
          "name": "FEE_BPS",
          "outputs": [
            {
              "internalType": "uint256",
              "name": "",
              "type": "uint256"
            }
          ],
          "stateMutability": "view",
          "type": "function"
        },
        {
          "inputs": [],
          "name": "MAX_STAKE",
          "outputs": [
            {
              "internalType": "uint256",
              "name": "",
              "type": "uint256"
            }
          ],
          "stateMutability": "view",
          "type": "function"
        },
        {
          "inputs": [],
          "name": "MIN_STAKE",
          "outputs": [
            {
              "internalType": "uint256",
              "name": "",
              "type": "uint256"
            }
          ],
          "stateMutability": "view",
          "type": "function"
        },
        {
          "inputs": [],
          "name": "TIMEOUT",
          "outputs": [
            {
              "internalType": "uint256",
              "name": "",
              "type": "uint256"
            }
          ],
          "stateMutability": "view",
          "type": "function"
        },
        {
          "inputs": [
            {
              "internalType": "uint256",
              "name": "_gameId",
              "type": "uint256"
            }
          ],
          "name": "cancelGame",
          "outputs": [],
          "stateMutability": "nonpayable",
          "type": "function"
        },
        {
          "inputs": [
            {
              "internalType": "uint256",
              "name": "_gameId",
              "type": "uint256"
            }
          ],
          "name": "claimTimeout",
          "outputs": [],
          "stateMutability": "nonpayable",
          "type": "function"
        },
        {
          "inputs": [
            {
              "internalType": "bytes32",
              "name": "_hash",
              "type": "bytes32"
            },
            {
              "internalType": "enum CeloDuelsMulti.GameType",
              "name": "_gameType",
              "type": "uint8"
            },
            {
              "internalType": "bool",
              "name": "_bestOf3",
              "type": "bool"
            }
          ],
          "name": "createGame",
          "outputs": [
            {
              "internalType": "uint256",
              "name": "",
              "type": "uint256"
            }
          ],
          "stateMutability": "payable",
          "type": "function"
        },
        {
          "inputs": [],
          "name": "feeRecipient",
          "outputs": [
            {
              "internalType": "address",
              "name": "",
              "type": "address"
            }
          ],
          "stateMutability": "view",
          "type": "function"
        },
        {
          "inputs": [
            {
              "internalType": "uint256",
              "name": "",
              "type": "uint256"
            }
          ],
          "name": "games",
          "outputs": [
            {
              "internalType": "address payable",
              "name": "player1",
              "type": "address"
            },
            {
              "internalType": "address payable",
              "name": "player2",
              "type": "address"
            },
            {
              "internalType": "bytes32",
              "name": "hash1",
              "type": "bytes32"
            },
            {
              "internalType": "bytes32",
              "name": "hash2",
              "type": "bytes32"
            },
            {
              "internalType": "uint8",
              "name": "move1",
              "type": "uint8"
            },
            {
              "internalType": "uint8",
              "name": "move2",
              "type": "uint8"
            },
            {
              "internalType": "enum CeloDuelsMulti.GameState",
              "name": "state",
              "type": "uint8"
            },
            {
              "internalType": "enum CeloDuelsMulti.GameType",
              "name": "gameType",
              "type": "uint8"
            },
            {
              "internalType": "uint256",
              "name": "joinedAt",
              "type": "uint256"
            },
            {
              "internalType": "uint256",
              "name": "createdAt",
              "type": "uint256"
            },
            {
              "internalType": "uint256",
              "name": "stake",
              "type": "uint256"
            },
            {
              "internalType": "uint8",
              "name": "wins1",
              "type": "uint8"
            },
            {
              "internalType": "uint8",
              "name": "wins2",
              "type": "uint8"
            },
            {
              "internalType": "uint8",
              "name": "draws",
              "type": "uint8"
            },
            {
              "internalType": "uint8",
              "name": "round",
              "type": "uint8"
            },
            {
              "internalType": "bool",
              "name": "bestOf3",
              "type": "bool"
            }
          ],
          "stateMutability": "view",
          "type": "function"
        },
        {
          "inputs": [
            {
              "internalType": "uint256",
              "name": "_gameId",
              "type": "uint256"
            }
          ],
          "name": "getGame",
          "outputs": [
            {
              "components": [
                {
                  "internalType": "address payable",
                  "name": "player1",
                  "type": "address"
                },
                {
                  "internalType": "address payable",
                  "name": "player2",
                  "type": "address"
                },
                {
                  "internalType": "bytes32",
                  "name": "hash1",
                  "type": "bytes32"
                },
                {
                  "internalType": "bytes32",
                  "name": "hash2",
                  "type": "bytes32"
                },
                {
                  "internalType": "uint8",
                  "name": "move1",
                  "type": "uint8"
                },
                {
                  "internalType": "uint8",
                  "name": "move2",
                  "type": "uint8"
                },
                {
                  "internalType": "enum CeloDuelsMulti.GameState",
                  "name": "state",
                  "type": "uint8"
                },
                {
                  "internalType": "enum CeloDuelsMulti.GameType",
                  "name": "gameType",
                  "type": "uint8"
                },
                {
                  "internalType": "uint256",
                  "name": "joinedAt",
                  "type": "uint256"
                },
                {
                  "internalType": "uint256",
                  "name": "createdAt",
                  "type": "uint256"
                },
                {
                  "internalType": "uint256",
                  "name": "stake",
                  "type": "uint256"
                },
                {
                  "internalType": "uint8",
                  "name": "wins1",
                  "type": "uint8"
                },
                {
                  "internalType": "uint8",
                  "name": "wins2",
                  "type": "uint8"
                },
                {
                  "internalType": "uint8",
                  "name": "draws",
                  "type": "uint8"
                },
                {
                  "internalType": "uint8",
                  "name": "round",
                  "type": "uint8"
                },
                {
                  "internalType": "bool",
                  "name": "bestOf3",
                  "type": "bool"
                }
              ],
              "internalType": "struct CeloDuelsMulti.Game",
              "name": "",
              "type": "tuple"
            }
          ],
          "stateMutability": "view",
          "type": "function"
        },
        {
          "inputs": [],
          "name": "getOpenGames",
          "outputs": [
            {
              "components": [
                {
                  "internalType": "uint256",
                  "name": "id",
                  "type": "uint256"
                },
                {
                  "internalType": "address",
                  "name": "player1",
                  "type": "address"
                },
                {
                  "internalType": "enum CeloDuelsMulti.GameType",
                  "name": "gameType",
                  "type": "uint8"
                },
                {
                  "internalType": "enum CeloDuelsMulti.GameState",
                  "name": "state",
                  "type": "uint8"
                },
                {
                  "internalType": "uint256",
                  "name": "createdAt",
                  "type": "uint256"
                },
                {
                  "internalType": "uint256",
                  "name": "stake",
                  "type": "uint256"
                },
                {
                  "internalType": "bool",
                  "name": "bestOf3",
                  "type": "bool"
                }
              ],
              "internalType": "struct CeloDuelsMulti.GameView[]",
              "name": "",
              "type": "tuple[]"
            }
          ],
          "stateMutability": "view",
          "type": "function"
        },
        {
          "inputs": [
            {
              "internalType": "uint256",
              "name": "_gameId",
              "type": "uint256"
            },
            {
              "internalType": "bytes32",
              "name": "_hash",
              "type": "bytes32"
            }
          ],
          "name": "joinGame",
          "outputs": [],
          "stateMutability": "payable",
          "type": "function"
        },
        {
          "inputs": [],
          "name": "nextGameId",
          "outputs": [
            {
              "internalType": "uint256",
              "name": "",
              "type": "uint256"
            }
          ],
          "stateMutability": "view",
          "type": "function"
        },
        {
          "inputs": [
            {
              "internalType": "uint256",
              "name": "",
              "type": "uint256"
            }
          ],
          "name": "openGameIds",
          "outputs": [
            {
              "internalType": "uint256",
              "name": "",
              "type": "uint256"
            }
          ],
          "stateMutability": "view",
          "type": "function"
        },
        {
          "inputs": [
            {
              "internalType": "uint256",
              "name": "_gameId",
              "type": "uint256"
            },
            {
              "internalType": "uint8",
              "name": "_move",
              "type": "uint8"
            },
            {
              "internalType": "string",
              "name": "_salt",
              "type": "string"
            }
          ],
          "name": "revealMove",
          "outputs": [],
          "stateMutability": "nonpayable",
          "type": "function"
        },
        {
          "inputs": [
            {
              "internalType": "uint256",
              "name": "_gameId",
              "type": "uint256"
            },
            {
              "internalType": "bytes32",
              "name": "_hash",
              "type": "bytes32"
            }
          ],
          "name": "submitNextRound",
          "outputs": [],
          "stateMutability": "nonpayable",
          "type": "function"
        }
      ],
      "evm": {
        "bytecode": {
          "linkReferences": {},
          "object": "60a034606d57601f611b7d38819003918201601f19168301916001600160401b03831184841017607257808492602094604052833981010312606d57516001600160a01b0381168103606d57608052604051611af4908161008982396080518181816106d201526113800152f35b600080fd5b634e487b7160e01b600052604160045260246000fdfe608080604052600436101561001357600080fd5b60003560e01c908163117a5b90146114d157508063138d16ac146113af578063469048401461136a57806352038e191461107d57806369958ab914610f4657806386e773f114610d34578063a2f77bcc14610aee578063ac95267114610989578063b135bbb01461096b578063bd675c0e1461036c578063bf333f2c14610350578063c98517c51461032d578063cb1c2b5c1461030c578063e75d7e3e1461012a578063ebd8ebce146100f25763f56f48f2146100cf57600080fd5b346100ed5760003660031901126100ed576020604051620151808152f35b600080fd5b346100ed5760203660031901126100ed576004356001548110156100ed5761011b6020916115fc565b90549060031b1c604051908152f35b346100ed5760003660031901126100ed5760015461014781611818565b9061015560405192836116bc565b808252601f1961016482611818565b0160005b8181106102c457505060005b818110610219578260405180916020820160208352815180915260206040840192019060005b8181106101a8575050500390f35b91935091602060e060019260c0875180518352858060a01b038582015116858401526101dc604082015160408501906115d9565b6101ee606082015160608501906115cc565b6080810151608084015260a081015160a08401520151151560c082015201940191019184939261019a565b806102256001926115fc565b90549060031b1c8060005260006020526040600020838060a01b0381541690600481015461029760ff600684015492816008600787015496015460201c169560405197610271896116a0565b8852602088015261028a828260181c16604089016116ea565b60101c16606086016116de565b608084015260a0830152151560c08201526102b28286611830565b526102bd8185611830565b5001610174565b6020906040516102d3816116a0565b60008152600083820152600060408201526000606082015260006080820152600060a0820152600060c082015282828701015201610168565b346100ed5760003660031901126100ed576020604051655af3107a40008152f35b346100ed5760003660031901126100ed576020604051678ac7230489e800008152f35b346100ed5760003660031901126100ed57602060405160648152f35b346100ed5760603660031901126100ed5760043560243560ff811681036100ed576044359067ffffffffffffffff82116100ed57366023830112156100ed5781600401359067ffffffffffffffff82116100ed5736602483850101116100ed578360005260006020526040600020600481019384549360ff8560101c16600581101561095557806001610408921490811561094a575b50611763565b61044260216040518381946024602084019760ff60f81b8b60f81b168952018484013781016000838201520301601f1981018352826116bc565b5190209260018060a01b0382541633146000146108cb575060ff92600261047892610470868854161561179d565b0154146117dc565b1660ff198254161781555b6202000062ff0000198254161781555460ff8116151590816108bb575b506104a757005b6000818152602081905260409020906001600160a01b036104c783611908565b169182610858576104fc600882016104e560ff825460101c166118f7565b62ff000082549160101b169062ff00001916179055565b6008810192835460ff8160181c1691847f2172f798fe6caf267064f077d47398f09d61e57674c19405bd2cf9634eb412186020604051868152a360ff8116906002821091821592610832575b5060ff8160081c16600281109081159161080e575b5060ff8260201c161591826107f9575b5082156107f1575b5081156107e9575b5080156107de575b1561078e5750508091506000526000602052604060002090600482016203000062ff000019825416179055600882015460ff8082169160081c1680821160001461076e57505081546001600160a01b03165b600783018054938460011b94808604600214901517156107585760648502858104606414861517156107585761271090049485810393818511610758576001600160a01b031695866106b9575050600080808060018060a01b038554168654908282156106b0575bf11561069b57600101549054600091829182918291906001600160a01b03168282156106a7575bf11561069b5760207f05da8c4db77b35635ce26b87fbcc7380ff80950dc26b8f0a41e2309d4adb72a1915b604051908152a35b005b6040513d6000823e3d90fd5b506108fc610666565b506108fc61063f565b91509150806000811561074f575b6000918291829182917f00000000000000000000000000000000000000000000000000000000000000006001600160a01b031690f11561069b5784839160009314610745575b600092839283928392f11561069b5760207f05da8c4db77b35635ce26b87fbcc7380ff80950dc26b8f0a41e2309d4adb72a191610691565b6108fc925061070d565b506108fc6106c7565b634e487b7160e01b600052601160045260246000fd5b11156107875760018201546001600160a01b03166105d7565b60006105d7565b6106999361079e6107b7926118f7565b63ff00000082549160181b169063ff0000001916179055565b60048101805460006002840181905560039093019290925562ffffff1990911690556116f6565b506003811015610585565b90508561057d565b915086610575565b600191925060ff9060101c161015908761056d565b905060ff8260201c16159081610826575b508761055d565b6001915010158761081f565b90915060ff8260201c1615908161084c575b509086610548565b60019150101586610844565b80546001600160a01b0316830361088a576008810160ff61087b818354166118f7565b1660ff198254161790556104fc565b6108b6600882016108a160ff825460081c166118f7565b61ff0082549160081b169061ff001916179055565b6104fc565b60ff915060081c161515826104a0565b9260018060a01b0360018301541633146000146109165760036108fb9261047060ff6109119760081c161561179d565b825461ff00191660089190911b61ff0016178255565b610483565b60405162461bcd60e51b815260206004820152600c60248201526b2737ba103090383630bcb2b960a11b6044820152606490fd5b600291501489610402565b634e487b7160e01b600052602160045260246000fd5b346100ed5760003660031901126100ed576020600254604051908152f35b610992366115e6565b816000526000602052604060002090600482019060ff825460101c16600581101561095557610ab95782546001600160a01b03163314610a7d5760078301543403610a38576001830180546001600160a01b031916331790556003830155805462ff000019166201000017905542600590910155610a0f81611844565b33907f45c4f9cbafe186141862608c493f28b823fde4c2142bedc3f5169961a73fdd22600080a3005b60405162461bcd60e51b815260206004820152601860248201527f4d757374206d617463682063726561746f72207374616b6500000000000000006044820152606490fd5b60405162461bcd60e51b815260206004820152601460248201527321b0b73737ba10383630bc903cb7bab939b2b63360611b6044820152606490fd5b60405162461bcd60e51b815260206004820152600d60248201526c23b0b6b2903737ba1037b832b760991b6044820152606490fd5b346100ed5760203660031901126100ed5760006101e0604051610b108161166d565b8281528260208201528260408201528260608201528260808201528260a08201528260c08201528260e08201528261010082015282610120820152826101408201528261016082015282610180820152826101a0820152826101c08201520152600435600052600060205261020060406000206101e0604051610b928161166d565b60018060a01b038354168152610cb6610c0d60ff60018060a01b036001870154169560208501968752816002820154916040870192835260038101546060880190815260048201549383600860808b01948288168652610c188c60e08560a083019b8181881c168d5260c084019e8f838360101c16906116de565b60181c1691016116ea565b60058101546101008d015260068101546101208d015260078101546101408d015201548181166101608c0152818160081c166101808c0152818160101c166101a08c0152818160181c166101c08c015260201c1615158a8a01526040519a60018060a01b038a51168c5260018060a01b0390511660208c01525160408b01525160608a015251166080880152511660a08601525160c08501906115cc565b610cc860e082015160e08501906115d9565b61010081015161010084015261012081015161012084015261014081015161014084015260ff6101608201511661016084015260ff6101808201511661018084015260ff6101a0820151166101a084015260ff6101c0820151166101c0840152015115156101e0820152f35b346100ed5760203660031901126100ed5760043580600052600060205260406000206004810160ff815460101c16600581101561095557806001610d809214908115610f3b5750611763565b6005820154620151808101809111610758574210610f00576204000062ff0000198254161781555460ff81161590811580610ef2575b15610e26575050600760018060a01b03825416910154908160011b91808304600214901517156107585760008080938193828215610e1d575bf11561069b575b7f681705fdbd93dba3b679fd712577e9a86d57c5551c520f8c74857deb57f9623f600080a2005b506108fc610def565b60081c60ff1615159081610eea575b5015610e8a57600760018060a01b03600183015416910154908160011b91808304600214901517156107585760008080938193828215610e81575bf1610df6576040513d6000823e3d90fd5b506108fc610e70565b60018060a01b038154169060008080806007850195865490828215610ee1575bf11561069b57600101549054600091829182918291906001600160a01b0316828215610e8157f1610df6576040513d6000823e3d90fd5b506108fc610eaa565b905083610e35565b5060ff8160081c1615610db6565b60405162461bcd60e51b8152602060048201526013602482015272151a5b595bdd5d081b9bdd081c995858da1959606a1b6044820152606490fd5b600291501485610402565b346100ed5760203660031901126100ed5760043580600052600060205260406000206004810160ff815460101c166005811015610955571580611069575b156110345781546001600160a01b03163303610fff57600080809381936204000062ff000019825416179055610fb986611844565b8054600790910154906001600160a01b0316828215610e1d57f11561069b577f681705fdbd93dba3b679fd712577e9a86d57c5551c520f8c74857deb57f9623f600080a2005b60405162461bcd60e51b815260206004820152600d60248201526c4e6f7420796f75722067616d6560981b6044820152606490fd5b60405162461bcd60e51b815260206004820152600d60248201526c10d85b9b9bdd0818d85b98d95b609a1b6044820152606490fd5b50600160ff600884015460181c1614610f84565b60603660031901126100ed57600460243510156100ed5760443580151581036100ed57655af3107a400034101580611358575b1561131e57600254600019811461075857600181016002556040516110d48161166d565b338152602081019260008452604082019360043585526060830190600082526000608085015260a08401956000875260c085016000815260e086019061111c602435836116ea565b600061010088018190524261012089015234610140890152610160880181905261018088018190526101a0880181815260016101c08a018181529815156101e08b019081528b8452602084905260409093208a5181546001600160a01b039182166001600160a01b031991821617835598519282018054939091169290981691909117909655935160028601559451600385015560808701516004850180549a5161ff0060089190911b1660ff90921661ffff19909b169a909a17178955939491935160058110156109555762ff000089549160101b169062ff00001916178855519160048310156109555760ff6112b89461128682610180600861129e9660209e849a63ff00000082549160181b169063ff00000019161790556101008d015160058201556101208d015160068201556101408d01516007820155019a8280610160830151161683198d5416178c55015116899061ff0082549160081b169061ff001916179055565b51875462ff00001916911660101b62ff000016178655565b51845463ff0000001916911660181b63ff00000016178355565b51815464ff000000001916901515841b64ff00000000161790556112db816116f6565b6040516112ea816024356115d9565b3483820152817fce7afad46ab3446a50492edf65c62119da1a4def9df32e797c96b27a9470f41160403393a3604051908152f35b60405162461bcd60e51b81526020600482015260126024820152715374616b65206f7574206f662072616e676560701b6044820152606490fd5b50678ac7230489e800003411156110b0565b346100ed5760003660031901126100ed576040517f00000000000000000000000000000000000000000000000000000000000000006001600160a01b03168152602090f35b346100ed576113bd366115e6565b908060005260006020526040600020600481019260ff845460101c1660058110156109555715806114bd575b156114845781546001600160a01b0316331480801561146e575b156109165715611459576002820161141c81541561162d565b555b60028101541515908161144b575b5061143357005b610699916201000062ff000019825416179055611844565b60039150015415158361142c565b6003820161146881541561162d565b5561141e565b5060018301546001600160a01b03163314611403565b60405162461bcd60e51b8152602060048201526011602482015270139bdd081a5b881b995e1d081c9bdd5b99607a1b6044820152606490fd5b50600160ff600884015460181c16116113e9565b346100ed5760203660031901126100ed5761020090600435600052600060205260ff604060002060018060a01b038154169060018060a01b03600182015416600282015461157f600384015460048501549060058601549360068701549560086007890154980154988b5260208b015260408a015260608901528681166080890152868160081c1660a089015261157060c08901888360101c166115cc565b8660e089019160181c166115d9565b610100860152610120850152610140840152818116610160840152818160081c16610180840152818160101c166101a0840152818160181c166101c084015260201c1615156101e0820152f35b9060058210156109555752565b9060048210156109555752565b60409060031901126100ed576004359060243590565b60015481101561161757600160005260206000200190600090565b634e487b7160e01b600052603260045260246000fd5b1561163457565b60405162461bcd60e51b8152602060048201526011602482015270105b1c9958591e481cdd589b5a5d1d1959607a1b6044820152606490fd5b610200810190811067ffffffffffffffff82111761168a57604052565b634e487b7160e01b600052604160045260246000fd5b60e0810190811067ffffffffffffffff82111761168a57604052565b90601f8019910116810190811067ffffffffffffffff82111761168a57604052565b60058210156109555752565b60048210156109555752565b90600154916801000000000000000083101561168a576001830160015560009260015481101561174f5760019093527fb10e2d527612073b26eecdfd717e6a320cf44b4afac2b0732d9fcbe2b7fa0cf690920191909155565b634e487b7160e01b84526032600452602484fd5b1561176a57565b60405162461bcd60e51b815260206004820152600b60248201526a57726f6e6720737461746560a81b6044820152606490fd5b156117a457565b60405162461bcd60e51b815260206004820152601060248201526f105b1c9958591e481c995d99585b195960821b6044820152606490fd5b156117e357565b60405162461bcd60e51b815260206004820152600d60248201526c090c2e6d040dad2e6dac2e8c6d609b1b6044820152606490fd5b67ffffffffffffffff811161168a5760051b60200190565b80518210156116175760209160051b010190565b60015460005b81811061185657505050565b82611860826115fc565b90549060031b1c146118745760010161184a565b600019820192509082116107585761189e6118916118b7936115fc565b90549060031b1c916115fc565b90919082549060031b91821b91600019901b1916179055565b60015480156118e157600019016118cd816115fc565b8154906000199060031b1b19169055600155565b634e487b7160e01b600052603160045260246000fd5b60ff1660ff81146107585760010190565b60048101549060ff821660ff808460081c169360181c16926004841015610955578315611a37576000600185146119ee575060028414611986576003600094146119525750505090565b8192939114611980575060021461197357600101546001600160a01b031690565b546001600160a01b031690565b91505090565b8092935081019160ff831161075857600192831615929081149114821480806119e5575b6119dc576119cd57146119bd5750600090565b600101546001600160a01b031690565b5050546001600160a01b031690565b50505050600090565b508282146119aa565b92935014611a3257506002810154600382015418600116611a2057546001600160a01b03165b6001600160a01b031690565b600101546001600160a01b0316611a14565b905090565b81819293945014611ab657600182149182611aab575b8215611a8f575b8215611a71575b505061197357600101546001600160a01b031690565b600314915081611a84575b503880611a5b565b600291501438611a7c565b91506002821480611aa1575b91611a54565b5060018114611a9b565b600382149250611a4d565b50505060009056fea2646970667358221220a9ca0365b010618b2e6c17d2e79f599d03741f3ed05fe6c9caa43aad13d3a48864736f6c634300081c0033",
          "opcodes": "PUSH1 0xA0 CALLVALUE PUSH1 0x6D JUMPI PUSH1 0x1F PUSH2 0x1B7D CODESIZE DUP2 SWAP1 SUB SWAP2 DUP3 ADD PUSH1 0x1F NOT AND DUP4 ADD SWAP2 PUSH1 0x1 PUSH1 0x1 PUSH1 0x40 SHL SUB DUP4 GT DUP5 DUP5 LT OR PUSH1 0x72 JUMPI DUP1 DUP5 SWAP3 PUSH1 0x20 SWAP5 PUSH1 0x40 MSTORE DUP4 CODECOPY DUP2 ADD SUB SLT PUSH1 0x6D JUMPI MLOAD PUSH1 0x1 PUSH1 0x1 PUSH1 0xA0 SHL SUB DUP2 AND DUP2 SUB PUSH1 0x6D JUMPI PUSH1 0x80 MSTORE PUSH1 0x40 MLOAD PUSH2 0x1AF4 SWAP1 DUP2 PUSH2 0x89 DUP3 CODECOPY PUSH1 0x80 MLOAD DUP2 DUP2 DUP2 PUSH2 0x6D2 ADD MSTORE PUSH2 0x1380 ADD MSTORE RETURN JUMPDEST PUSH1 0x0 DUP1 REVERT JUMPDEST PUSH4 0x4E487B71 PUSH1 0xE0 SHL PUSH1 0x0 MSTORE PUSH1 0x41 PUSH1 0x4 MSTORE PUSH1 0x24 PUSH1 0x0 REVERT INVALID PUSH1 0x80 DUP1 PUSH1 0x40 MSTORE PUSH1 0x4 CALLDATASIZE LT ISZERO PUSH2 0x13 JUMPI PUSH1 0x0 DUP1 REVERT JUMPDEST PUSH1 0x0 CALLDATALOAD PUSH1 0xE0 SHR SWAP1 DUP2 PUSH4 0x117A5B90 EQ PUSH2 0x14D1 JUMPI POP DUP1 PUSH4 0x138D16AC EQ PUSH2 0x13AF JUMPI DUP1 PUSH4 0x46904840 EQ PUSH2 0x136A JUMPI DUP1 PUSH4 0x52038E19 EQ PUSH2 0x107D JUMPI DUP1 PUSH4 0x69958AB9 EQ PUSH2 0xF46 JUMPI DUP1 PUSH4 0x86E773F1 EQ PUSH2 0xD34 JUMPI DUP1 PUSH4 0xA2F77BCC EQ PUSH2 0xAEE JUMPI DUP1 PUSH4 0xAC952671 EQ PUSH2 0x989 JUMPI DUP1 PUSH4 0xB135BBB0 EQ PUSH2 0x96B JUMPI DUP1 PUSH4 0xBD675C0E EQ PUSH2 0x36C JUMPI DUP1 PUSH4 0xBF333F2C EQ PUSH2 0x350 JUMPI DUP1 PUSH4 0xC98517C5 EQ PUSH2 0x32D JUMPI DUP1 PUSH4 0xCB1C2B5C EQ PUSH2 0x30C JUMPI DUP1 PUSH4 0xE75D7E3E EQ PUSH2 0x12A JUMPI DUP1 PUSH4 0xEBD8EBCE EQ PUSH2 0xF2 JUMPI PUSH4 0xF56F48F2 EQ PUSH2 0xCF JUMPI PUSH1 0x0 DUP1 REVERT JUMPDEST CALLVALUE PUSH2 0xED JUMPI PUSH1 0x0 CALLDATASIZE PUSH1 0x3 NOT ADD SLT PUSH2 0xED JUMPI PUSH1 0x20 PUSH1 0x40 MLOAD PUSH3 0x15180 DUP2 MSTORE RETURN JUMPDEST PUSH1 0x0 DUP1 REVERT JUMPDEST CALLVALUE PUSH2 0xED JUMPI PUSH1 0x20 CALLDATASIZE PUSH1 0x3 NOT ADD SLT PUSH2 0xED JUMPI PUSH1 0x4 CALLDATALOAD PUSH1 0x1 SLOAD DUP2 LT ISZERO PUSH2 0xED JUMPI PUSH2 0x11B PUSH1 0x20 SWAP2 PUSH2 0x15FC JUMP JUMPDEST SWAP1 SLOAD SWAP1 PUSH1 0x3 SHL SHR PUSH1 0x40 MLOAD SWAP1 DUP2 MSTORE RETURN JUMPDEST CALLVALUE PUSH2 0xED JUMPI PUSH1 0x0 CALLDATASIZE PUSH1 0x3 NOT ADD SLT PUSH2 0xED JUMPI PUSH1 0x1 SLOAD PUSH2 0x147 DUP2 PUSH2 0x1818 JUMP JUMPDEST SWAP1 PUSH2 0x155 PUSH1 0x40 MLOAD SWAP3 DUP4 PUSH2 0x16BC JUMP JUMPDEST DUP1 DUP3 MSTORE PUSH1 0x1F NOT PUSH2 0x164 DUP3 PUSH2 0x1818 JUMP JUMPDEST ADD PUSH1 0x0 JUMPDEST DUP2 DUP2 LT PUSH2 0x2C4 JUMPI POP POP PUSH1 0x0 JUMPDEST DUP2 DUP2 LT PUSH2 0x219 JUMPI DUP3 PUSH1 0x40 MLOAD DUP1 SWAP2 PUSH1 0x20 DUP3 ADD PUSH1 0x20 DUP4 MSTORE DUP2 MLOAD DUP1 SWAP2 MSTORE PUSH1 0x20 PUSH1 0x40 DUP5 ADD SWAP3 ADD SWAP1 PUSH1 0x0 JUMPDEST DUP2 DUP2 LT PUSH2 0x1A8 JUMPI POP POP POP SUB SWAP1 RETURN JUMPDEST SWAP2 SWAP4 POP SWAP2 PUSH1 0x20 PUSH1 0xE0 PUSH1 0x1 SWAP3 PUSH1 0xC0 DUP8 MLOAD DUP1 MLOAD DUP4 MSTORE DUP6 DUP1 PUSH1 0xA0 SHL SUB DUP6 DUP3 ADD MLOAD AND DUP6 DUP5 ADD MSTORE PUSH2 0x1DC PUSH1 0x40 DUP3 ADD MLOAD PUSH1 0x40 DUP6 ADD SWAP1 PUSH2 0x15D9 JUMP JUMPDEST PUSH2 0x1EE PUSH1 0x60 DUP3 ADD MLOAD PUSH1 0x60 DUP6 ADD SWAP1 PUSH2 0x15CC JUMP JUMPDEST PUSH1 0x80 DUP2 ADD MLOAD PUSH1 0x80 DUP5 ADD MSTORE PUSH1 0xA0 DUP2 ADD MLOAD PUSH1 0xA0 DUP5 ADD MSTORE ADD MLOAD ISZERO ISZERO PUSH1 0xC0 DUP3 ADD MSTORE ADD SWAP5 ADD SWAP2 ADD SWAP2 DUP5 SWAP4 SWAP3 PUSH2 0x19A JUMP JUMPDEST DUP1 PUSH2 0x225 PUSH1 0x1 SWAP3 PUSH2 0x15FC JUMP JUMPDEST SWAP1 SLOAD SWAP1 PUSH1 0x3 SHL SHR DUP1 PUSH1 0x0 MSTORE PUSH1 0x0 PUSH1 0x20 MSTORE PUSH1 0x40 PUSH1 0x0 KECCAK256 DUP4 DUP1 PUSH1 0xA0 SHL SUB DUP2 SLOAD AND SWAP1 PUSH1 0x4 DUP2 ADD SLOAD PUSH2 0x297 PUSH1 0xFF PUSH1 0x6 DUP5 ADD SLOAD SWAP3 DUP2 PUSH1 0x8 PUSH1 0x7 DUP8 ADD SLOAD SWAP7 ADD SLOAD PUSH1 0x20 SHR AND SWAP6 PUSH1 0x40 MLOAD SWAP8 PUSH2 0x271 DUP10 PUSH2 0x16A0 JUMP JUMPDEST DUP9 MSTORE PUSH1 0x20 DUP9 ADD MSTORE PUSH2 0x28A DUP3 DUP3 PUSH1 0x18 SHR AND PUSH1 0x40 DUP10 ADD PUSH2 0x16EA JUMP JUMPDEST PUSH1 0x10 SHR AND PUSH1 0x60 DUP7 ADD PUSH2 0x16DE JUMP JUMPDEST PUSH1 0x80 DUP5 ADD MSTORE PUSH1 0xA0 DUP4 ADD MSTORE ISZERO ISZERO PUSH1 0xC0 DUP3 ADD MSTORE PUSH2 0x2B2 DUP3 DUP7 PUSH2 0x1830 JUMP JUMPDEST MSTORE PUSH2 0x2BD DUP2 DUP6 PUSH2 0x1830 JUMP JUMPDEST POP ADD PUSH2 0x174 JUMP JUMPDEST PUSH1 0x20 SWAP1 PUSH1 0x40 MLOAD PUSH2 0x2D3 DUP2 PUSH2 0x16A0 JUMP JUMPDEST PUSH1 0x0 DUP2 MSTORE PUSH1 0x0 DUP4 DUP3 ADD MSTORE PUSH1 0x0 PUSH1 0x40 DUP3 ADD MSTORE PUSH1 0x0 PUSH1 0x60 DUP3 ADD MSTORE PUSH1 0x0 PUSH1 0x80 DUP3 ADD MSTORE PUSH1 0x0 PUSH1 0xA0 DUP3 ADD MSTORE PUSH1 0x0 PUSH1 0xC0 DUP3 ADD MSTORE DUP3 DUP3 DUP8 ADD ADD MSTORE ADD PUSH2 0x168 JUMP JUMPDEST CALLVALUE PUSH2 0xED JUMPI PUSH1 0x0 CALLDATASIZE PUSH1 0x3 NOT ADD SLT PUSH2 0xED JUMPI PUSH1 0x20 PUSH1 0x40 MLOAD PUSH6 0x5AF3107A4000 DUP2 MSTORE RETURN JUMPDEST CALLVALUE PUSH2 0xED JUMPI PUSH1 0x0 CALLDATASIZE PUSH1 0x3 NOT ADD SLT PUSH2 0xED JUMPI PUSH1 0x20 PUSH1 0x40 MLOAD PUSH8 0x8AC7230489E80000 DUP2 MSTORE RETURN JUMPDEST CALLVALUE PUSH2 0xED JUMPI PUSH1 0x0 CALLDATASIZE PUSH1 0x3 NOT ADD SLT PUSH2 0xED JUMPI PUSH1 0x20 PUSH1 0x40 MLOAD PUSH1 0x64 DUP2 MSTORE RETURN JUMPDEST CALLVALUE PUSH2 0xED JUMPI PUSH1 0x60 CALLDATASIZE PUSH1 0x3 NOT ADD SLT PUSH2 0xED JUMPI PUSH1 0x4 CALLDATALOAD PUSH1 0x24 CALLDATALOAD PUSH1 0xFF DUP2 AND DUP2 SUB PUSH2 0xED JUMPI PUSH1 0x44 CALLDATALOAD SWAP1 PUSH8 0xFFFFFFFFFFFFFFFF DUP3 GT PUSH2 0xED JUMPI CALLDATASIZE PUSH1 0x23 DUP4 ADD SLT ISZERO PUSH2 0xED JUMPI DUP2 PUSH1 0x4 ADD CALLDATALOAD SWAP1 PUSH8 0xFFFFFFFFFFFFFFFF DUP3 GT PUSH2 0xED JUMPI CALLDATASIZE PUSH1 0x24 DUP4 DUP6 ADD ADD GT PUSH2 0xED JUMPI DUP4 PUSH1 0x0 MSTORE PUSH1 0x0 PUSH1 0x20 MSTORE PUSH1 0x40 PUSH1 0x0 KECCAK256 PUSH1 0x4 DUP2 ADD SWAP4 DUP5 SLOAD SWAP4 PUSH1 0xFF DUP6 PUSH1 0x10 SHR AND PUSH1 0x5 DUP2 LT ISZERO PUSH2 0x955 JUMPI DUP1 PUSH1 0x1 PUSH2 0x408 SWAP3 EQ SWAP1 DUP2 ISZERO PUSH2 0x94A JUMPI JUMPDEST POP PUSH2 0x1763 JUMP JUMPDEST PUSH2 0x442 PUSH1 0x21 PUSH1 0x40 MLOAD DUP4 DUP2 SWAP5 PUSH1 0x24 PUSH1 0x20 DUP5 ADD SWAP8 PUSH1 0xFF PUSH1 0xF8 SHL DUP12 PUSH1 0xF8 SHL AND DUP10 MSTORE ADD DUP5 DUP5 ADD CALLDATACOPY DUP2 ADD PUSH1 0x0 DUP4 DUP3 ADD MSTORE SUB ADD PUSH1 0x1F NOT DUP2 ADD DUP4 MSTORE DUP3 PUSH2 0x16BC JUMP JUMPDEST MLOAD SWAP1 KECCAK256 SWAP3 PUSH1 0x1 DUP1 PUSH1 0xA0 SHL SUB DUP3 SLOAD AND CALLER EQ PUSH1 0x0 EQ PUSH2 0x8CB JUMPI POP PUSH1 0xFF SWAP3 PUSH1 0x2 PUSH2 0x478 SWAP3 PUSH2 0x470 DUP7 DUP9 SLOAD AND ISZERO PUSH2 0x179D JUMP JUMPDEST ADD SLOAD EQ PUSH2 0x17DC JUMP JUMPDEST AND PUSH1 0xFF NOT DUP3 SLOAD AND OR DUP2 SSTORE JUMPDEST PUSH3 0x20000 PUSH3 0xFF0000 NOT DUP3 SLOAD AND OR DUP2 SSTORE SLOAD PUSH1 0xFF DUP2 AND ISZERO ISZERO SWAP1 DUP2 PUSH2 0x8BB JUMPI JUMPDEST POP PUSH2 0x4A7 JUMPI STOP JUMPDEST PUSH1 0x0 DUP2 DUP2 MSTORE PUSH1 0x20 DUP2 SWAP1 MSTORE PUSH1 0x40 SWAP1 KECCAK256 SWAP1 PUSH1 0x1 PUSH1 0x1 PUSH1 0xA0 SHL SUB PUSH2 0x4C7 DUP4 PUSH2 0x1908 JUMP JUMPDEST AND SWAP2 DUP3 PUSH2 0x858 JUMPI PUSH2 0x4FC PUSH1 0x8 DUP3 ADD PUSH2 0x4E5 PUSH1 0xFF DUP3 SLOAD PUSH1 0x10 SHR AND PUSH2 0x18F7 JUMP JUMPDEST PUSH3 0xFF0000 DUP3 SLOAD SWAP2 PUSH1 0x10 SHL AND SWAP1 PUSH3 0xFF0000 NOT AND OR SWAP1 SSTORE JUMP JUMPDEST PUSH1 0x8 DUP2 ADD SWAP3 DUP4 SLOAD PUSH1 0xFF DUP2 PUSH1 0x18 SHR AND SWAP2 DUP5 PUSH32 0x2172F798FE6CAF267064F077D47398F09D61E57674C19405BD2CF9634EB41218 PUSH1 0x20 PUSH1 0x40 MLOAD DUP7 DUP2 MSTORE LOG3 PUSH1 0xFF DUP2 AND SWAP1 PUSH1 0x2 DUP3 LT SWAP2 DUP3 ISZERO SWAP3 PUSH2 0x832 JUMPI JUMPDEST POP PUSH1 0xFF DUP2 PUSH1 0x8 SHR AND PUSH1 0x2 DUP2 LT SWAP1 DUP2 ISZERO SWAP2 PUSH2 0x80E JUMPI JUMPDEST POP PUSH1 0xFF DUP3 PUSH1 0x20 SHR AND ISZERO SWAP2 DUP3 PUSH2 0x7F9 JUMPI JUMPDEST POP DUP3 ISZERO PUSH2 0x7F1 JUMPI JUMPDEST POP DUP2 ISZERO PUSH2 0x7E9 JUMPI JUMPDEST POP DUP1 ISZERO PUSH2 0x7DE JUMPI JUMPDEST ISZERO PUSH2 0x78E JUMPI POP POP DUP1 SWAP2 POP PUSH1 0x0 MSTORE PUSH1 0x0 PUSH1 0x20 MSTORE PUSH1 0x40 PUSH1 0x0 KECCAK256 SWAP1 PUSH1 0x4 DUP3 ADD PUSH3 0x30000 PUSH3 0xFF0000 NOT DUP3 SLOAD AND OR SWAP1 SSTORE PUSH1 0x8 DUP3 ADD SLOAD PUSH1 0xFF DUP1 DUP3 AND SWAP2 PUSH1 0x8 SHR AND DUP1 DUP3 GT PUSH1 0x0 EQ PUSH2 0x76E JUMPI POP POP DUP2 SLOAD PUSH1 0x1 PUSH1 0x1 PUSH1 0xA0 SHL SUB AND JUMPDEST PUSH1 0x7 DUP4 ADD DUP1 SLOAD SWAP4 DUP5 PUSH1 0x1 SHL SWAP5 DUP1 DUP7 DIV PUSH1 0x2 EQ SWAP1 ISZERO OR ISZERO PUSH2 0x758 JUMPI PUSH1 0x64 DUP6 MUL DUP6 DUP2 DIV PUSH1 0x64 EQ DUP7 ISZERO OR ISZERO PUSH2 0x758 JUMPI PUSH2 0x2710 SWAP1 DIV SWAP5 DUP6 DUP2 SUB SWAP4 DUP2 DUP6 GT PUSH2 0x758 JUMPI PUSH1 0x1 PUSH1 0x1 PUSH1 0xA0 SHL SUB AND SWAP6 DUP7 PUSH2 0x6B9 JUMPI POP POP PUSH1 0x0 DUP1 DUP1 DUP1 PUSH1 0x1 DUP1 PUSH1 0xA0 SHL SUB DUP6 SLOAD AND DUP7 SLOAD SWAP1 DUP3 DUP3 ISZERO PUSH2 0x6B0 JUMPI JUMPDEST CALL ISZERO PUSH2 0x69B JUMPI PUSH1 0x1 ADD SLOAD SWAP1 SLOAD PUSH1 0x0 SWAP2 DUP3 SWAP2 DUP3 SWAP2 DUP3 SWAP2 SWAP1 PUSH1 0x1 PUSH1 0x1 PUSH1 0xA0 SHL SUB AND DUP3 DUP3 ISZERO PUSH2 0x6A7 JUMPI JUMPDEST CALL ISZERO PUSH2 0x69B JUMPI PUSH1 0x20 PUSH32 0x5DA8C4DB77B35635CE26B87FBCC7380FF80950DC26B8F0A41E2309D4ADB72A1 SWAP2 JUMPDEST PUSH1 0x40 MLOAD SWAP1 DUP2 MSTORE LOG3 JUMPDEST STOP JUMPDEST PUSH1 0x40 MLOAD RETURNDATASIZE PUSH1 0x0 DUP3 RETURNDATACOPY RETURNDATASIZE SWAP1 REVERT JUMPDEST POP PUSH2 0x8FC PUSH2 0x666 JUMP JUMPDEST POP PUSH2 0x8FC PUSH2 0x63F JUMP JUMPDEST SWAP2 POP SWAP2 POP DUP1 PUSH1 0x0 DUP2 ISZERO PUSH2 0x74F JUMPI JUMPDEST PUSH1 0x0 SWAP2 DUP3 SWAP2 DUP3 SWAP2 DUP3 SWAP2 PUSH32 0x0 PUSH1 0x1 PUSH1 0x1 PUSH1 0xA0 SHL SUB AND SWAP1 CALL ISZERO PUSH2 0x69B JUMPI DUP5 DUP4 SWAP2 PUSH1 0x0 SWAP4 EQ PUSH2 0x745 JUMPI JUMPDEST PUSH1 0x0 SWAP3 DUP4 SWAP3 DUP4 SWAP3 DUP4 SWAP3 CALL ISZERO PUSH2 0x69B JUMPI PUSH1 0x20 PUSH32 0x5DA8C4DB77B35635CE26B87FBCC7380FF80950DC26B8F0A41E2309D4ADB72A1 SWAP2 PUSH2 0x691 JUMP JUMPDEST PUSH2 0x8FC SWAP3 POP PUSH2 0x70D JUMP JUMPDEST POP PUSH2 0x8FC PUSH2 0x6C7 JUMP JUMPDEST PUSH4 0x4E487B71 PUSH1 0xE0 SHL PUSH1 0x0 MSTORE PUSH1 0x11 PUSH1 0x4 MSTORE PUSH1 0x24 PUSH1 0x0 REVERT JUMPDEST GT ISZERO PUSH2 0x787 JUMPI PUSH1 0x1 DUP3 ADD SLOAD PUSH1 0x1 PUSH1 0x1 PUSH1 0xA0 SHL SUB AND PUSH2 0x5D7 JUMP JUMPDEST PUSH1 0x0 PUSH2 0x5D7 JUMP JUMPDEST PUSH2 0x699 SWAP4 PUSH2 0x79E PUSH2 0x7B7 SWAP3 PUSH2 0x18F7 JUMP JUMPDEST PUSH4 0xFF000000 DUP3 SLOAD SWAP2 PUSH1 0x18 SHL AND SWAP1 PUSH4 0xFF000000 NOT AND OR SWAP1 SSTORE JUMP JUMPDEST PUSH1 0x4 DUP2 ADD DUP1 SLOAD PUSH1 0x0 PUSH1 0x2 DUP5 ADD DUP2 SWAP1 SSTORE PUSH1 0x3 SWAP1 SWAP4 ADD SWAP3 SWAP1 SWAP3 SSTORE PUSH3 0xFFFFFF NOT SWAP1 SWAP2 AND SWAP1 SSTORE PUSH2 0x16F6 JUMP JUMPDEST POP PUSH1 0x3 DUP2 LT ISZERO PUSH2 0x585 JUMP JUMPDEST SWAP1 POP DUP6 PUSH2 0x57D JUMP JUMPDEST SWAP2 POP DUP7 PUSH2 0x575 JUMP JUMPDEST PUSH1 0x1 SWAP2 SWAP3 POP PUSH1 0xFF SWAP1 PUSH1 0x10 SHR AND LT ISZERO SWAP1 DUP8 PUSH2 0x56D JUMP JUMPDEST SWAP1 POP PUSH1 0xFF DUP3 PUSH1 0x20 SHR AND ISZERO SWAP1 DUP2 PUSH2 0x826 JUMPI JUMPDEST POP DUP8 PUSH2 0x55D JUMP JUMPDEST PUSH1 0x1 SWAP2 POP LT ISZERO DUP8 PUSH2 0x81F JUMP JUMPDEST SWAP1 SWAP2 POP PUSH1 0xFF DUP3 PUSH1 0x20 SHR AND ISZERO SWAP1 DUP2 PUSH2 0x84C JUMPI JUMPDEST POP SWAP1 DUP7 PUSH2 0x548 JUMP JUMPDEST PUSH1 0x1 SWAP2 POP LT ISZERO DUP7 PUSH2 0x844 JUMP JUMPDEST DUP1 SLOAD PUSH1 0x1 PUSH1 0x1 PUSH1 0xA0 SHL SUB AND DUP4 SUB PUSH2 0x88A JUMPI PUSH1 0x8 DUP2 ADD PUSH1 0xFF PUSH2 0x87B DUP2 DUP4 SLOAD AND PUSH2 0x18F7 JUMP JUMPDEST AND PUSH1 0xFF NOT DUP3 SLOAD AND OR SWAP1 SSTORE PUSH2 0x4FC JUMP JUMPDEST PUSH2 0x8B6 PUSH1 0x8 DUP3 ADD PUSH2 0x8A1 PUSH1 0xFF DUP3 SLOAD PUSH1 0x8 SHR AND PUSH2 0x18F7 JUMP JUMPDEST PUSH2 0xFF00 DUP3 SLOAD SWAP2 PUSH1 0x8 SHL AND SWAP1 PUSH2 0xFF00 NOT AND OR SWAP1 SSTORE JUMP JUMPDEST PUSH2 0x4FC JUMP JUMPDEST PUSH1 0xFF SWAP2 POP PUSH1 0x8 SHR AND ISZERO ISZERO DUP3 PUSH2 0x4A0 JUMP JUMPDEST SWAP3 PUSH1 0x1 DUP1 PUSH1 0xA0 SHL SUB PUSH1 0x1 DUP4 ADD SLOAD AND CALLER EQ PUSH1 0x0 EQ PUSH2 0x916 JUMPI PUSH1 0x3 PUSH2 0x8FB SWAP3 PUSH2 0x470 PUSH1 0xFF PUSH2 0x911 SWAP8 PUSH1 0x8 SHR AND ISZERO PUSH2 0x179D JUMP JUMPDEST DUP3 SLOAD PUSH2 0xFF00 NOT AND PUSH1 0x8 SWAP2 SWAP1 SWAP2 SHL PUSH2 0xFF00 AND OR DUP3 SSTORE JUMP JUMPDEST PUSH2 0x483 JUMP JUMPDEST PUSH1 0x40 MLOAD PUSH3 0x461BCD PUSH1 0xE5 SHL DUP2 MSTORE PUSH1 0x20 PUSH1 0x4 DUP3 ADD MSTORE PUSH1 0xC PUSH1 0x24 DUP3 ADD MSTORE PUSH12 0x2737BA103090383630BCB2B9 PUSH1 0xA1 SHL PUSH1 0x44 DUP3 ADD MSTORE PUSH1 0x64 SWAP1 REVERT JUMPDEST PUSH1 0x2 SWAP2 POP EQ DUP10 PUSH2 0x402 JUMP JUMPDEST PUSH4 0x4E487B71 PUSH1 0xE0 SHL PUSH1 0x0 MSTORE PUSH1 0x21 PUSH1 0x4 MSTORE PUSH1 0x24 PUSH1 0x0 REVERT JUMPDEST CALLVALUE PUSH2 0xED JUMPI PUSH1 0x0 CALLDATASIZE PUSH1 0x3 NOT ADD SLT PUSH2 0xED JUMPI PUSH1 0x20 PUSH1 0x2 SLOAD PUSH1 0x40 MLOAD SWAP1 DUP2 MSTORE RETURN JUMPDEST PUSH2 0x992 CALLDATASIZE PUSH2 0x15E6 JUMP JUMPDEST DUP2 PUSH1 0x0 MSTORE PUSH1 0x0 PUSH1 0x20 MSTORE PUSH1 0x40 PUSH1 0x0 KECCAK256 SWAP1 PUSH1 0x4 DUP3 ADD SWAP1 PUSH1 0xFF DUP3 SLOAD PUSH1 0x10 SHR AND PUSH1 0x5 DUP2 LT ISZERO PUSH2 0x955 JUMPI PUSH2 0xAB9 JUMPI DUP3 SLOAD PUSH1 0x1 PUSH1 0x1 PUSH1 0xA0 SHL SUB AND CALLER EQ PUSH2 0xA7D JUMPI PUSH1 0x7 DUP4 ADD SLOAD CALLVALUE SUB PUSH2 0xA38 JUMPI PUSH1 0x1 DUP4 ADD DUP1 SLOAD PUSH1 0x1 PUSH1 0x1 PUSH1 0xA0 SHL SUB NOT AND CALLER OR SWAP1 SSTORE PUSH1 0x3 DUP4 ADD SSTORE DUP1 SLOAD PUSH3 0xFF0000 NOT AND PUSH3 0x10000 OR SWAP1 SSTORE TIMESTAMP PUSH1 0x5 SWAP1 SWAP2 ADD SSTORE PUSH2 0xA0F DUP2 PUSH2 0x1844 JUMP JUMPDEST CALLER SWAP1 PUSH32 0x45C4F9CBAFE186141862608C493F28B823FDE4C2142BEDC3F5169961A73FDD22 PUSH1 0x0 DUP1 LOG3 STOP JUMPDEST PUSH1 0x40 MLOAD PUSH3 0x461BCD PUSH1 0xE5 SHL DUP2 MSTORE PUSH1 0x20 PUSH1 0x4 DUP3 ADD MSTORE PUSH1 0x18 PUSH1 0x24 DUP3 ADD MSTORE PUSH32 0x4D757374206D617463682063726561746F72207374616B650000000000000000 PUSH1 0x44 DUP3 ADD MSTORE PUSH1 0x64 SWAP1 REVERT JUMPDEST PUSH1 0x40 MLOAD PUSH3 0x461BCD PUSH1 0xE5 SHL DUP2 MSTORE PUSH1 0x20 PUSH1 0x4 DUP3 ADD MSTORE PUSH1 0x14 PUSH1 0x24 DUP3 ADD MSTORE PUSH20 0x21B0B73737BA10383630BC903CB7BAB939B2B633 PUSH1 0x61 SHL PUSH1 0x44 DUP3 ADD MSTORE PUSH1 0x64 SWAP1 REVERT JUMPDEST PUSH1 0x40 MLOAD PUSH3 0x461BCD PUSH1 0xE5 SHL DUP2 MSTORE PUSH1 0x20 PUSH1 0x4 DUP3 ADD MSTORE PUSH1 0xD PUSH1 0x24 DUP3 ADD MSTORE PUSH13 0x23B0B6B2903737BA1037B832B7 PUSH1 0x99 SHL PUSH1 0x44 DUP3 ADD MSTORE PUSH1 0x64 SWAP1 REVERT JUMPDEST CALLVALUE PUSH2 0xED JUMPI PUSH1 0x20 CALLDATASIZE PUSH1 0x3 NOT ADD SLT PUSH2 0xED JUMPI PUSH1 0x0 PUSH2 0x1E0 PUSH1 0x40 MLOAD PUSH2 0xB10 DUP2 PUSH2 0x166D JUMP JUMPDEST DUP3 DUP2 MSTORE DUP3 PUSH1 0x20 DUP3 ADD MSTORE DUP3 PUSH1 0x40 DUP3 ADD MSTORE DUP3 PUSH1 0x60 DUP3 ADD MSTORE DUP3 PUSH1 0x80 DUP3 ADD MSTORE DUP3 PUSH1 0xA0 DUP3 ADD MSTORE DUP3 PUSH1 0xC0 DUP3 ADD MSTORE DUP3 PUSH1 0xE0 DUP3 ADD MSTORE DUP3 PUSH2 0x100 DUP3 ADD MSTORE DUP3 PUSH2 0x120 DUP3 ADD MSTORE DUP3 PUSH2 0x140 DUP3 ADD MSTORE DUP3 PUSH2 0x160 DUP3 ADD MSTORE DUP3 PUSH2 0x180 DUP3 ADD MSTORE DUP3 PUSH2 0x1A0 DUP3 ADD MSTORE DUP3 PUSH2 0x1C0 DUP3 ADD MSTORE ADD MSTORE PUSH1 0x4 CALLDATALOAD PUSH1 0x0 MSTORE PUSH1 0x0 PUSH1 0x20 MSTORE PUSH2 0x200 PUSH1 0x40 PUSH1 0x0 KECCAK256 PUSH2 0x1E0 PUSH1 0x40 MLOAD PUSH2 0xB92 DUP2 PUSH2 0x166D JUMP JUMPDEST PUSH1 0x1 DUP1 PUSH1 0xA0 SHL SUB DUP4 SLOAD AND DUP2 MSTORE PUSH2 0xCB6 PUSH2 0xC0D PUSH1 0xFF PUSH1 0x1 DUP1 PUSH1 0xA0 SHL SUB PUSH1 0x1 DUP8 ADD SLOAD AND SWAP6 PUSH1 0x20 DUP6 ADD SWAP7 DUP8 MSTORE DUP2 PUSH1 0x2 DUP3 ADD SLOAD SWAP2 PUSH1 0x40 DUP8 ADD SWAP3 DUP4 MSTORE PUSH1 0x3 DUP2 ADD SLOAD PUSH1 0x60 DUP9 ADD SWAP1 DUP2 MSTORE PUSH1 0x4 DUP3 ADD SLOAD SWAP4 DUP4 PUSH1 0x8 PUSH1 0x80 DUP12 ADD SWAP5 DUP3 DUP9 AND DUP7 MSTORE PUSH2 0xC18 DUP13 PUSH1 0xE0 DUP6 PUSH1 0xA0 DUP4 ADD SWAP12 DUP2 DUP2 DUP9 SHR AND DUP14 MSTORE PUSH1 0xC0 DUP5 ADD SWAP15 DUP16 DUP4 DUP4 PUSH1 0x10 SHR AND SWAP1 PUSH2 0x16DE JUMP JUMPDEST PUSH1 0x18 SHR AND SWAP2 ADD PUSH2 0x16EA JUMP JUMPDEST PUSH1 0x5 DUP2 ADD SLOAD PUSH2 0x100 DUP14 ADD MSTORE PUSH1 0x6 DUP2 ADD SLOAD PUSH2 0x120 DUP14 ADD MSTORE PUSH1 0x7 DUP2 ADD SLOAD PUSH2 0x140 DUP14 ADD MSTORE ADD SLOAD DUP2 DUP2 AND PUSH2 0x160 DUP13 ADD MSTORE DUP2 DUP2 PUSH1 0x8 SHR AND PUSH2 0x180 DUP13 ADD MSTORE DUP2 DUP2 PUSH1 0x10 SHR AND PUSH2 0x1A0 DUP13 ADD MSTORE DUP2 DUP2 PUSH1 0x18 SHR AND PUSH2 0x1C0 DUP13 ADD MSTORE PUSH1 0x20 SHR AND ISZERO ISZERO DUP11 DUP11 ADD MSTORE PUSH1 0x40 MLOAD SWAP11 PUSH1 0x1 DUP1 PUSH1 0xA0 SHL SUB DUP11 MLOAD AND DUP13 MSTORE PUSH1 0x1 DUP1 PUSH1 0xA0 SHL SUB SWAP1 MLOAD AND PUSH1 0x20 DUP13 ADD MSTORE MLOAD PUSH1 0x40 DUP12 ADD MSTORE MLOAD PUSH1 0x60 DUP11 ADD MSTORE MLOAD AND PUSH1 0x80 DUP9 ADD MSTORE MLOAD AND PUSH1 0xA0 DUP7 ADD MSTORE MLOAD PUSH1 0xC0 DUP6 ADD SWAP1 PUSH2 0x15CC JUMP JUMPDEST PUSH2 0xCC8 PUSH1 0xE0 DUP3 ADD MLOAD PUSH1 0xE0 DUP6 ADD SWAP1 PUSH2 0x15D9 JUMP JUMPDEST PUSH2 0x100 DUP2 ADD MLOAD PUSH2 0x100 DUP5 ADD MSTORE PUSH2 0x120 DUP2 ADD MLOAD PUSH2 0x120 DUP5 ADD MSTORE PUSH2 0x140 DUP2 ADD MLOAD PUSH2 0x140 DUP5 ADD MSTORE PUSH1 0xFF PUSH2 0x160 DUP3 ADD MLOAD AND PUSH2 0x160 DUP5 ADD MSTORE PUSH1 0xFF PUSH2 0x180 DUP3 ADD MLOAD AND PUSH2 0x180 DUP5 ADD MSTORE PUSH1 0xFF PUSH2 0x1A0 DUP3 ADD MLOAD AND PUSH2 0x1A0 DUP5 ADD MSTORE PUSH1 0xFF PUSH2 0x1C0 DUP3 ADD MLOAD AND PUSH2 0x1C0 DUP5 ADD MSTORE ADD MLOAD ISZERO ISZERO PUSH2 0x1E0 DUP3 ADD MSTORE RETURN JUMPDEST CALLVALUE PUSH2 0xED JUMPI PUSH1 0x20 CALLDATASIZE PUSH1 0x3 NOT ADD SLT PUSH2 0xED JUMPI PUSH1 0x4 CALLDATALOAD DUP1 PUSH1 0x0 MSTORE PUSH1 0x0 PUSH1 0x20 MSTORE PUSH1 0x40 PUSH1 0x0 KECCAK256 PUSH1 0x4 DUP2 ADD PUSH1 0xFF DUP2 SLOAD PUSH1 0x10 SHR AND PUSH1 0x5 DUP2 LT ISZERO PUSH2 0x955 JUMPI DUP1 PUSH1 0x1 PUSH2 0xD80 SWAP3 EQ SWAP1 DUP2 ISZERO PUSH2 0xF3B JUMPI POP PUSH2 0x1763 JUMP JUMPDEST PUSH1 0x5 DUP3 ADD SLOAD PUSH3 0x15180 DUP2 ADD DUP1 SWAP2 GT PUSH2 0x758 JUMPI TIMESTAMP LT PUSH2 0xF00 JUMPI PUSH3 0x40000 PUSH3 0xFF0000 NOT DUP3 SLOAD AND OR DUP2 SSTORE SLOAD PUSH1 0xFF DUP2 AND ISZERO SWAP1 DUP2 ISZERO DUP1 PUSH2 0xEF2 JUMPI JUMPDEST ISZERO PUSH2 0xE26 JUMPI POP POP PUSH1 0x7 PUSH1 0x1 DUP1 PUSH1 0xA0 SHL SUB DUP3 SLOAD AND SWAP2 ADD SLOAD SWAP1 DUP2 PUSH1 0x1 SHL SWAP2 DUP1 DUP4 DIV PUSH1 0x2 EQ SWAP1 ISZERO OR ISZERO PUSH2 0x758 JUMPI PUSH1 0x0 DUP1 DUP1 SWAP4 DUP2 SWAP4 DUP3 DUP3 ISZERO PUSH2 0xE1D JUMPI JUMPDEST CALL ISZERO PUSH2 0x69B JUMPI JUMPDEST PUSH32 0x681705FDBD93DBA3B679FD712577E9A86D57C5551C520F8C74857DEB57F9623F PUSH1 0x0 DUP1 LOG2 STOP JUMPDEST POP PUSH2 0x8FC PUSH2 0xDEF JUMP JUMPDEST PUSH1 0x8 SHR PUSH1 0xFF AND ISZERO ISZERO SWAP1 DUP2 PUSH2 0xEEA JUMPI JUMPDEST POP ISZERO PUSH2 0xE8A JUMPI PUSH1 0x7 PUSH1 0x1 DUP1 PUSH1 0xA0 SHL SUB PUSH1 0x1 DUP4 ADD SLOAD AND SWAP2 ADD SLOAD SWAP1 DUP2 PUSH1 0x1 SHL SWAP2 DUP1 DUP4 DIV PUSH1 0x2 EQ SWAP1 ISZERO OR ISZERO PUSH2 0x758 JUMPI PUSH1 0x0 DUP1 DUP1 SWAP4 DUP2 SWAP4 DUP3 DUP3 ISZERO PUSH2 0xE81 JUMPI JUMPDEST CALL PUSH2 0xDF6 JUMPI PUSH1 0x40 MLOAD RETURNDATASIZE PUSH1 0x0 DUP3 RETURNDATACOPY RETURNDATASIZE SWAP1 REVERT JUMPDEST POP PUSH2 0x8FC PUSH2 0xE70 JUMP JUMPDEST PUSH1 0x1 DUP1 PUSH1 0xA0 SHL SUB DUP2 SLOAD AND SWAP1 PUSH1 0x0 DUP1 DUP1 DUP1 PUSH1 0x7 DUP6 ADD SWAP6 DUP7 SLOAD SWAP1 DUP3 DUP3 ISZERO PUSH2 0xEE1 JUMPI JUMPDEST CALL ISZERO PUSH2 0x69B JUMPI PUSH1 0x1 ADD SLOAD SWAP1 SLOAD PUSH1 0x0 SWAP2 DUP3 SWAP2 DUP3 SWAP2 DUP3 SWAP2 SWAP1 PUSH1 0x1 PUSH1 0x1 PUSH1 0xA0 SHL SUB AND DUP3 DUP3 ISZERO PUSH2 0xE81 JUMPI CALL PUSH2 0xDF6 JUMPI PUSH1 0x40 MLOAD RETURNDATASIZE PUSH1 0x0 DUP3 RETURNDATACOPY RETURNDATASIZE SWAP1 REVERT JUMPDEST POP PUSH2 0x8FC PUSH2 0xEAA JUMP JUMPDEST SWAP1 POP DUP4 PUSH2 0xE35 JUMP JUMPDEST POP PUSH1 0xFF DUP2 PUSH1 0x8 SHR AND ISZERO PUSH2 0xDB6 JUMP JUMPDEST PUSH1 0x40 MLOAD PUSH3 0x461BCD PUSH1 0xE5 SHL DUP2 MSTORE PUSH1 0x20 PUSH1 0x4 DUP3 ADD MSTORE PUSH1 0x13 PUSH1 0x24 DUP3 ADD MSTORE PUSH19 0x151A5B595BDD5D081B9BDD081C995858DA1959 PUSH1 0x6A SHL PUSH1 0x44 DUP3 ADD MSTORE PUSH1 0x64 SWAP1 REVERT JUMPDEST PUSH1 0x2 SWAP2 POP EQ DUP6 PUSH2 0x402 JUMP JUMPDEST CALLVALUE PUSH2 0xED JUMPI PUSH1 0x20 CALLDATASIZE PUSH1 0x3 NOT ADD SLT PUSH2 0xED JUMPI PUSH1 0x4 CALLDATALOAD DUP1 PUSH1 0x0 MSTORE PUSH1 0x0 PUSH1 0x20 MSTORE PUSH1 0x40 PUSH1 0x0 KECCAK256 PUSH1 0x4 DUP2 ADD PUSH1 0xFF DUP2 SLOAD PUSH1 0x10 SHR AND PUSH1 0x5 DUP2 LT ISZERO PUSH2 0x955 JUMPI ISZERO DUP1 PUSH2 0x1069 JUMPI JUMPDEST ISZERO PUSH2 0x1034 JUMPI DUP2 SLOAD PUSH1 0x1 PUSH1 0x1 PUSH1 0xA0 SHL SUB AND CALLER SUB PUSH2 0xFFF JUMPI PUSH1 0x0 DUP1 DUP1 SWAP4 DUP2 SWAP4 PUSH3 0x40000 PUSH3 0xFF0000 NOT DUP3 SLOAD AND OR SWAP1 SSTORE PUSH2 0xFB9 DUP7 PUSH2 0x1844 JUMP JUMPDEST DUP1 SLOAD PUSH1 0x7 SWAP1 SWAP2 ADD SLOAD SWAP1 PUSH1 0x1 PUSH1 0x1 PUSH1 0xA0 SHL SUB AND DUP3 DUP3 ISZERO PUSH2 0xE1D JUMPI CALL ISZERO PUSH2 0x69B JUMPI PUSH32 0x681705FDBD93DBA3B679FD712577E9A86D57C5551C520F8C74857DEB57F9623F PUSH1 0x0 DUP1 LOG2 STOP JUMPDEST PUSH1 0x40 MLOAD PUSH3 0x461BCD PUSH1 0xE5 SHL DUP2 MSTORE PUSH1 0x20 PUSH1 0x4 DUP3 ADD MSTORE PUSH1 0xD PUSH1 0x24 DUP3 ADD MSTORE PUSH13 0x4E6F7420796F75722067616D65 PUSH1 0x98 SHL PUSH1 0x44 DUP3 ADD MSTORE PUSH1 0x64 SWAP1 REVERT JUMPDEST PUSH1 0x40 MLOAD PUSH3 0x461BCD PUSH1 0xE5 SHL DUP2 MSTORE PUSH1 0x20 PUSH1 0x4 DUP3 ADD MSTORE PUSH1 0xD PUSH1 0x24 DUP3 ADD MSTORE PUSH13 0x10D85B9B9BDD0818D85B98D95B PUSH1 0x9A SHL PUSH1 0x44 DUP3 ADD MSTORE PUSH1 0x64 SWAP1 REVERT JUMPDEST POP PUSH1 0x1 PUSH1 0xFF PUSH1 0x8 DUP5 ADD SLOAD PUSH1 0x18 SHR AND EQ PUSH2 0xF84 JUMP JUMPDEST PUSH1 0x60 CALLDATASIZE PUSH1 0x3 NOT ADD SLT PUSH2 0xED JUMPI PUSH1 0x4 PUSH1 0x24 CALLDATALOAD LT ISZERO PUSH2 0xED JUMPI PUSH1 0x44 CALLDATALOAD DUP1 ISZERO ISZERO DUP2 SUB PUSH2 0xED JUMPI PUSH6 0x5AF3107A4000 CALLVALUE LT ISZERO DUP1 PUSH2 0x1358 JUMPI JUMPDEST ISZERO PUSH2 0x131E JUMPI PUSH1 0x2 SLOAD PUSH1 0x0 NOT DUP2 EQ PUSH2 0x758 JUMPI PUSH1 0x1 DUP2 ADD PUSH1 0x2 SSTORE PUSH1 0x40 MLOAD PUSH2 0x10D4 DUP2 PUSH2 0x166D JUMP JUMPDEST CALLER DUP2 MSTORE PUSH1 0x20 DUP2 ADD SWAP3 PUSH1 0x0 DUP5 MSTORE PUSH1 0x40 DUP3 ADD SWAP4 PUSH1 0x4 CALLDATALOAD DUP6 MSTORE PUSH1 0x60 DUP4 ADD SWAP1 PUSH1 0x0 DUP3 MSTORE PUSH1 0x0 PUSH1 0x80 DUP6 ADD MSTORE PUSH1 0xA0 DUP5 ADD SWAP6 PUSH1 0x0 DUP8 MSTORE PUSH1 0xC0 DUP6 ADD PUSH1 0x0 DUP2 MSTORE PUSH1 0xE0 DUP7 ADD SWAP1 PUSH2 0x111C PUSH1 0x24 CALLDATALOAD DUP4 PUSH2 0x16EA JUMP JUMPDEST PUSH1 0x0 PUSH2 0x100 DUP9 ADD DUP2 SWAP1 MSTORE TIMESTAMP PUSH2 0x120 DUP10 ADD MSTORE CALLVALUE PUSH2 0x140 DUP10 ADD MSTORE PUSH2 0x160 DUP9 ADD DUP2 SWAP1 MSTORE PUSH2 0x180 DUP9 ADD DUP2 SWAP1 MSTORE PUSH2 0x1A0 DUP9 ADD DUP2 DUP2 MSTORE PUSH1 0x1 PUSH2 0x1C0 DUP11 ADD DUP2 DUP2 MSTORE SWAP9 ISZERO ISZERO PUSH2 0x1E0 DUP12 ADD SWAP1 DUP2 MSTORE DUP12 DUP5 MSTORE PUSH1 0x20 DUP5 SWAP1 MSTORE PUSH1 0x40 SWAP1 SWAP4 KECCAK256 DUP11 MLOAD DUP2 SLOAD PUSH1 0x1 PUSH1 0x1 PUSH1 0xA0 SHL SUB SWAP2 DUP3 AND PUSH1 0x1 PUSH1 0x1 PUSH1 0xA0 SHL SUB NOT SWAP2 DUP3 AND OR DUP4 SSTORE SWAP9 MLOAD SWAP3 DUP3 ADD DUP1 SLOAD SWAP4 SWAP1 SWAP2 AND SWAP3 SWAP1 SWAP9 AND SWAP2 SWAP1 SWAP2 OR SWAP1 SWAP7 SSTORE SWAP4 MLOAD PUSH1 0x2 DUP7 ADD SSTORE SWAP5 MLOAD PUSH1 0x3 DUP6 ADD SSTORE PUSH1 0x80 DUP8 ADD MLOAD PUSH1 0x4 DUP6 ADD DUP1 SLOAD SWAP11 MLOAD PUSH2 0xFF00 PUSH1 0x8 SWAP2 SWAP1 SWAP2 SHL AND PUSH1 0xFF SWAP1 SWAP3 AND PUSH2 0xFFFF NOT SWAP1 SWAP12 AND SWAP11 SWAP1 SWAP11 OR OR DUP10 SSTORE SWAP4 SWAP5 SWAP2 SWAP4 MLOAD PUSH1 0x5 DUP2 LT ISZERO PUSH2 0x955 JUMPI PUSH3 0xFF0000 DUP10 SLOAD SWAP2 PUSH1 0x10 SHL AND SWAP1 PUSH3 0xFF0000 NOT AND OR DUP9 SSTORE MLOAD SWAP2 PUSH1 0x4 DUP4 LT ISZERO PUSH2 0x955 JUMPI PUSH1 0xFF PUSH2 0x12B8 SWAP5 PUSH2 0x1286 DUP3 PUSH2 0x180 PUSH1 0x8 PUSH2 0x129E SWAP7 PUSH1 0x20 SWAP15 DUP5 SWAP11 PUSH4 0xFF000000 DUP3 SLOAD SWAP2 PUSH1 0x18 SHL AND SWAP1 PUSH4 0xFF000000 NOT AND OR SWAP1 SSTORE PUSH2 0x100 DUP14 ADD MLOAD PUSH1 0x5 DUP3 ADD SSTORE PUSH2 0x120 DUP14 ADD MLOAD PUSH1 0x6 DUP3 ADD SSTORE PUSH2 0x140 DUP14 ADD MLOAD PUSH1 0x7 DUP3 ADD SSTORE ADD SWAP11 DUP3 DUP1 PUSH2 0x160 DUP4 ADD MLOAD AND AND DUP4 NOT DUP14 SLOAD AND OR DUP13 SSTORE ADD MLOAD AND DUP10 SWAP1 PUSH2 0xFF00 DUP3 SLOAD SWAP2 PUSH1 0x8 SHL AND SWAP1 PUSH2 0xFF00 NOT AND OR SWAP1 SSTORE JUMP JUMPDEST MLOAD DUP8 SLOAD PUSH3 0xFF0000 NOT AND SWAP2 AND PUSH1 0x10 SHL PUSH3 0xFF0000 AND OR DUP7 SSTORE JUMP JUMPDEST MLOAD DUP5 SLOAD PUSH4 0xFF000000 NOT AND SWAP2 AND PUSH1 0x18 SHL PUSH4 0xFF000000 AND OR DUP4 SSTORE JUMP JUMPDEST MLOAD DUP2 SLOAD PUSH5 0xFF00000000 NOT AND SWAP1 ISZERO ISZERO DUP5 SHL PUSH5 0xFF00000000 AND OR SWAP1 SSTORE PUSH2 0x12DB DUP2 PUSH2 0x16F6 JUMP JUMPDEST PUSH1 0x40 MLOAD PUSH2 0x12EA DUP2 PUSH1 0x24 CALLDATALOAD PUSH2 0x15D9 JUMP JUMPDEST CALLVALUE DUP4 DUP3 ADD MSTORE DUP2 PUSH32 0xCE7AFAD46AB3446A50492EDF65C62119DA1A4DEF9DF32E797C96B27A9470F411 PUSH1 0x40 CALLER SWAP4 LOG3 PUSH1 0x40 MLOAD SWAP1 DUP2 MSTORE RETURN JUMPDEST PUSH1 0x40 MLOAD PUSH3 0x461BCD PUSH1 0xE5 SHL DUP2 MSTORE PUSH1 0x20 PUSH1 0x4 DUP3 ADD MSTORE PUSH1 0x12 PUSH1 0x24 DUP3 ADD MSTORE PUSH18 0x5374616B65206F7574206F662072616E6765 PUSH1 0x70 SHL PUSH1 0x44 DUP3 ADD MSTORE PUSH1 0x64 SWAP1 REVERT JUMPDEST POP PUSH8 0x8AC7230489E80000 CALLVALUE GT ISZERO PUSH2 0x10B0 JUMP JUMPDEST CALLVALUE PUSH2 0xED JUMPI PUSH1 0x0 CALLDATASIZE PUSH1 0x3 NOT ADD SLT PUSH2 0xED JUMPI PUSH1 0x40 MLOAD PUSH32 0x0 PUSH1 0x1 PUSH1 0x1 PUSH1 0xA0 SHL SUB AND DUP2 MSTORE PUSH1 0x20 SWAP1 RETURN JUMPDEST CALLVALUE PUSH2 0xED JUMPI PUSH2 0x13BD CALLDATASIZE PUSH2 0x15E6 JUMP JUMPDEST SWAP1 DUP1 PUSH1 0x0 MSTORE PUSH1 0x0 PUSH1 0x20 MSTORE PUSH1 0x40 PUSH1 0x0 KECCAK256 PUSH1 0x4 DUP2 ADD SWAP3 PUSH1 0xFF DUP5 SLOAD PUSH1 0x10 SHR AND PUSH1 0x5 DUP2 LT ISZERO PUSH2 0x955 JUMPI ISZERO DUP1 PUSH2 0x14BD JUMPI JUMPDEST ISZERO PUSH2 0x1484 JUMPI DUP2 SLOAD PUSH1 0x1 PUSH1 0x1 PUSH1 0xA0 SHL SUB AND CALLER EQ DUP1 DUP1 ISZERO PUSH2 0x146E JUMPI JUMPDEST ISZERO PUSH2 0x916 JUMPI ISZERO PUSH2 0x1459 JUMPI PUSH1 0x2 DUP3 ADD PUSH2 0x141C DUP2 SLOAD ISZERO PUSH2 0x162D JUMP JUMPDEST SSTORE JUMPDEST PUSH1 0x2 DUP2 ADD SLOAD ISZERO ISZERO SWAP1 DUP2 PUSH2 0x144B JUMPI JUMPDEST POP PUSH2 0x1433 JUMPI STOP JUMPDEST PUSH2 0x699 SWAP2 PUSH3 0x10000 PUSH3 0xFF0000 NOT DUP3 SLOAD AND OR SWAP1 SSTORE PUSH2 0x1844 JUMP JUMPDEST PUSH1 0x3 SWAP2 POP ADD SLOAD ISZERO ISZERO DUP4 PUSH2 0x142C JUMP JUMPDEST PUSH1 0x3 DUP3 ADD PUSH2 0x1468 DUP2 SLOAD ISZERO PUSH2 0x162D JUMP JUMPDEST SSTORE PUSH2 0x141E JUMP JUMPDEST POP PUSH1 0x1 DUP4 ADD SLOAD PUSH1 0x1 PUSH1 0x1 PUSH1 0xA0 SHL SUB AND CALLER EQ PUSH2 0x1403 JUMP JUMPDEST PUSH1 0x40 MLOAD PUSH3 0x461BCD PUSH1 0xE5 SHL DUP2 MSTORE PUSH1 0x20 PUSH1 0x4 DUP3 ADD MSTORE PUSH1 0x11 PUSH1 0x24 DUP3 ADD MSTORE PUSH17 0x139BDD081A5B881B995E1D081C9BDD5B99 PUSH1 0x7A SHL PUSH1 0x44 DUP3 ADD MSTORE PUSH1 0x64 SWAP1 REVERT JUMPDEST POP PUSH1 0x1 PUSH1 0xFF PUSH1 0x8 DUP5 ADD SLOAD PUSH1 0x18 SHR AND GT PUSH2 0x13E9 JUMP JUMPDEST CALLVALUE PUSH2 0xED JUMPI PUSH1 0x20 CALLDATASIZE PUSH1 0x3 NOT ADD SLT PUSH2 0xED JUMPI PUSH2 0x200 SWAP1 PUSH1 0x4 CALLDATALOAD PUSH1 0x0 MSTORE PUSH1 0x0 PUSH1 0x20 MSTORE PUSH1 0xFF PUSH1 0x40 PUSH1 0x0 KECCAK256 PUSH1 0x1 DUP1 PUSH1 0xA0 SHL SUB DUP2 SLOAD AND SWAP1 PUSH1 0x1 DUP1 PUSH1 0xA0 SHL SUB PUSH1 0x1 DUP3 ADD SLOAD AND PUSH1 0x2 DUP3 ADD SLOAD PUSH2 0x157F PUSH1 0x3 DUP5 ADD SLOAD PUSH1 0x4 DUP6 ADD SLOAD SWAP1 PUSH1 0x5 DUP7 ADD SLOAD SWAP4 PUSH1 0x6 DUP8 ADD SLOAD SWAP6 PUSH1 0x8 PUSH1 0x7 DUP10 ADD SLOAD SWAP9 ADD SLOAD SWAP9 DUP12 MSTORE PUSH1 0x20 DUP12 ADD MSTORE PUSH1 0x40 DUP11 ADD MSTORE PUSH1 0x60 DUP10 ADD MSTORE DUP7 DUP2 AND PUSH1 0x80 DUP10 ADD MSTORE DUP7 DUP2 PUSH1 0x8 SHR AND PUSH1 0xA0 DUP10 ADD MSTORE PUSH2 0x1570 PUSH1 0xC0 DUP10 ADD DUP9 DUP4 PUSH1 0x10 SHR AND PUSH2 0x15CC JUMP JUMPDEST DUP7 PUSH1 0xE0 DUP10 ADD SWAP2 PUSH1 0x18 SHR AND PUSH2 0x15D9 JUMP JUMPDEST PUSH2 0x100 DUP7 ADD MSTORE PUSH2 0x120 DUP6 ADD MSTORE PUSH2 0x140 DUP5 ADD MSTORE DUP2 DUP2 AND PUSH2 0x160 DUP5 ADD MSTORE DUP2 DUP2 PUSH1 0x8 SHR AND PUSH2 0x180 DUP5 ADD MSTORE DUP2 DUP2 PUSH1 0x10 SHR AND PUSH2 0x1A0 DUP5 ADD MSTORE DUP2 DUP2 PUSH1 0x18 SHR AND PUSH2 0x1C0 DUP5 ADD MSTORE PUSH1 0x20 SHR AND ISZERO ISZERO PUSH2 0x1E0 DUP3 ADD MSTORE RETURN JUMPDEST SWAP1 PUSH1 0x5 DUP3 LT ISZERO PUSH2 0x955 JUMPI MSTORE JUMP JUMPDEST SWAP1 PUSH1 0x4 DUP3 LT ISZERO PUSH2 0x955 JUMPI MSTORE JUMP JUMPDEST PUSH1 0x40 SWAP1 PUSH1 0x3 NOT ADD SLT PUSH2 0xED JUMPI PUSH1 0x4 CALLDATALOAD SWAP1 PUSH1 0x24 CALLDATALOAD SWAP1 JUMP JUMPDEST PUSH1 0x1 SLOAD DUP2 LT ISZERO PUSH2 0x1617 JUMPI PUSH1 0x1 PUSH1 0x0 MSTORE PUSH1 0x20 PUSH1 0x0 KECCAK256 ADD SWAP1 PUSH1 0x0 SWAP1 JUMP JUMPDEST PUSH4 0x4E487B71 PUSH1 0xE0 SHL PUSH1 0x0 MSTORE PUSH1 0x32 PUSH1 0x4 MSTORE PUSH1 0x24 PUSH1 0x0 REVERT JUMPDEST ISZERO PUSH2 0x1634 JUMPI JUMP JUMPDEST PUSH1 0x40 MLOAD PUSH3 0x461BCD PUSH1 0xE5 SHL DUP2 MSTORE PUSH1 0x20 PUSH1 0x4 DUP3 ADD MSTORE PUSH1 0x11 PUSH1 0x24 DUP3 ADD MSTORE PUSH17 0x105B1C9958591E481CDD589B5A5D1D1959 PUSH1 0x7A SHL PUSH1 0x44 DUP3 ADD MSTORE PUSH1 0x64 SWAP1 REVERT JUMPDEST PUSH2 0x200 DUP2 ADD SWAP1 DUP2 LT PUSH8 0xFFFFFFFFFFFFFFFF DUP3 GT OR PUSH2 0x168A JUMPI PUSH1 0x40 MSTORE JUMP JUMPDEST PUSH4 0x4E487B71 PUSH1 0xE0 SHL PUSH1 0x0 MSTORE PUSH1 0x41 PUSH1 0x4 MSTORE PUSH1 0x24 PUSH1 0x0 REVERT JUMPDEST PUSH1 0xE0 DUP2 ADD SWAP1 DUP2 LT PUSH8 0xFFFFFFFFFFFFFFFF DUP3 GT OR PUSH2 0x168A JUMPI PUSH1 0x40 MSTORE JUMP JUMPDEST SWAP1 PUSH1 0x1F DUP1 NOT SWAP2 ADD AND DUP2 ADD SWAP1 DUP2 LT PUSH8 0xFFFFFFFFFFFFFFFF DUP3 GT OR PUSH2 0x168A JUMPI PUSH1 0x40 MSTORE JUMP JUMPDEST PUSH1 0x5 DUP3 LT ISZERO PUSH2 0x955 JUMPI MSTORE JUMP JUMPDEST PUSH1 0x4 DUP3 LT ISZERO PUSH2 0x955 JUMPI MSTORE JUMP JUMPDEST SWAP1 PUSH1 0x1 SLOAD SWAP2 PUSH9 0x10000000000000000 DUP4 LT ISZERO PUSH2 0x168A JUMPI PUSH1 0x1 DUP4 ADD PUSH1 0x1 SSTORE PUSH1 0x0 SWAP3 PUSH1 0x1 SLOAD DUP2 LT ISZERO PUSH2 0x174F JUMPI PUSH1 0x1 SWAP1 SWAP4 MSTORE PUSH32 0xB10E2D527612073B26EECDFD717E6A320CF44B4AFAC2B0732D9FCBE2B7FA0CF6 SWAP1 SWAP3 ADD SWAP2 SWAP1 SWAP2 SSTORE JUMP JUMPDEST PUSH4 0x4E487B71 PUSH1 0xE0 SHL DUP5 MSTORE PUSH1 0x32 PUSH1 0x4 MSTORE PUSH1 0x24 DUP5 REVERT JUMPDEST ISZERO PUSH2 0x176A JUMPI JUMP JUMPDEST PUSH1 0x40 MLOAD PUSH3 0x461BCD PUSH1 0xE5 SHL DUP2 MSTORE PUSH1 0x20 PUSH1 0x4 DUP3 ADD MSTORE PUSH1 0xB PUSH1 0x24 DUP3 ADD MSTORE PUSH11 0x57726F6E67207374617465 PUSH1 0xA8 SHL PUSH1 0x44 DUP3 ADD MSTORE PUSH1 0x64 SWAP1 REVERT JUMPDEST ISZERO PUSH2 0x17A4 JUMPI JUMP JUMPDEST PUSH1 0x40 MLOAD PUSH3 0x461BCD PUSH1 0xE5 SHL DUP2 MSTORE PUSH1 0x20 PUSH1 0x4 DUP3 ADD MSTORE PUSH1 0x10 PUSH1 0x24 DUP3 ADD MSTORE PUSH16 0x105B1C9958591E481C995D99585B1959 PUSH1 0x82 SHL PUSH1 0x44 DUP3 ADD MSTORE PUSH1 0x64 SWAP1 REVERT JUMPDEST ISZERO PUSH2 0x17E3 JUMPI JUMP JUMPDEST PUSH1 0x40 MLOAD PUSH3 0x461BCD PUSH1 0xE5 SHL DUP2 MSTORE PUSH1 0x20 PUSH1 0x4 DUP3 ADD MSTORE PUSH1 0xD PUSH1 0x24 DUP3 ADD MSTORE PUSH13 0x90C2E6D040DAD2E6DAC2E8C6D PUSH1 0x9B SHL PUSH1 0x44 DUP3 ADD MSTORE PUSH1 0x64 SWAP1 REVERT JUMPDEST PUSH8 0xFFFFFFFFFFFFFFFF DUP2 GT PUSH2 0x168A JUMPI PUSH1 0x5 SHL PUSH1 0x20 ADD SWAP1 JUMP JUMPDEST DUP1 MLOAD DUP3 LT ISZERO PUSH2 0x1617 JUMPI PUSH1 0x20 SWAP2 PUSH1 0x5 SHL ADD ADD SWAP1 JUMP JUMPDEST PUSH1 0x1 SLOAD PUSH1 0x0 JUMPDEST DUP2 DUP2 LT PUSH2 0x1856 JUMPI POP POP POP JUMP JUMPDEST DUP3 PUSH2 0x1860 DUP3 PUSH2 0x15FC JUMP JUMPDEST SWAP1 SLOAD SWAP1 PUSH1 0x3 SHL SHR EQ PUSH2 0x1874 JUMPI PUSH1 0x1 ADD PUSH2 0x184A JUMP JUMPDEST PUSH1 0x0 NOT DUP3 ADD SWAP3 POP SWAP1 DUP3 GT PUSH2 0x758 JUMPI PUSH2 0x189E PUSH2 0x1891 PUSH2 0x18B7 SWAP4 PUSH2 0x15FC JUMP JUMPDEST SWAP1 SLOAD SWAP1 PUSH1 0x3 SHL SHR SWAP2 PUSH2 0x15FC JUMP JUMPDEST SWAP1 SWAP2 SWAP1 DUP3 SLOAD SWAP1 PUSH1 0x3 SHL SWAP2 DUP3 SHL SWAP2 PUSH1 0x0 NOT SWAP1 SHL NOT AND OR SWAP1 SSTORE JUMP JUMPDEST PUSH1 0x1 SLOAD DUP1 ISZERO PUSH2 0x18E1 JUMPI PUSH1 0x0 NOT ADD PUSH2 0x18CD DUP2 PUSH2 0x15FC JUMP JUMPDEST DUP2 SLOAD SWAP1 PUSH1 0x0 NOT SWAP1 PUSH1 0x3 SHL SHL NOT AND SWAP1 SSTORE PUSH1 0x1 SSTORE JUMP JUMPDEST PUSH4 0x4E487B71 PUSH1 0xE0 SHL PUSH1 0x0 MSTORE PUSH1 0x31 PUSH1 0x4 MSTORE PUSH1 0x24 PUSH1 0x0 REVERT JUMPDEST PUSH1 0xFF AND PUSH1 0xFF DUP2 EQ PUSH2 0x758 JUMPI PUSH1 0x1 ADD SWAP1 JUMP JUMPDEST PUSH1 0x4 DUP2 ADD SLOAD SWAP1 PUSH1 0xFF DUP3 AND PUSH1 0xFF DUP1 DUP5 PUSH1 0x8 SHR AND SWAP4 PUSH1 0x18 SHR AND SWAP3 PUSH1 0x4 DUP5 LT ISZERO PUSH2 0x955 JUMPI DUP4 ISZERO PUSH2 0x1A37 JUMPI PUSH1 0x0 PUSH1 0x1 DUP6 EQ PUSH2 0x19EE JUMPI POP PUSH1 0x2 DUP5 EQ PUSH2 0x1986 JUMPI PUSH1 0x3 PUSH1 0x0 SWAP5 EQ PUSH2 0x1952 JUMPI POP POP POP SWAP1 JUMP JUMPDEST DUP2 SWAP3 SWAP4 SWAP2 EQ PUSH2 0x1980 JUMPI POP PUSH1 0x2 EQ PUSH2 0x1973 JUMPI PUSH1 0x1 ADD SLOAD PUSH1 0x1 PUSH1 0x1 PUSH1 0xA0 SHL SUB AND SWAP1 JUMP JUMPDEST SLOAD PUSH1 0x1 PUSH1 0x1 PUSH1 0xA0 SHL SUB AND SWAP1 JUMP JUMPDEST SWAP2 POP POP SWAP1 JUMP JUMPDEST DUP1 SWAP3 SWAP4 POP DUP2 ADD SWAP2 PUSH1 0xFF DUP4 GT PUSH2 0x758 JUMPI PUSH1 0x1 SWAP3 DUP4 AND ISZERO SWAP3 SWAP1 DUP2 EQ SWAP2 EQ DUP3 EQ DUP1 DUP1 PUSH2 0x19E5 JUMPI JUMPDEST PUSH2 0x19DC JUMPI PUSH2 0x19CD JUMPI EQ PUSH2 0x19BD JUMPI POP PUSH1 0x0 SWAP1 JUMP JUMPDEST PUSH1 0x1 ADD SLOAD PUSH1 0x1 PUSH1 0x1 PUSH1 0xA0 SHL SUB AND SWAP1 JUMP JUMPDEST POP POP SLOAD PUSH1 0x1 PUSH1 0x1 PUSH1 0xA0 SHL SUB AND SWAP1 JUMP JUMPDEST POP POP POP POP PUSH1 0x0 SWAP1 JUMP JUMPDEST POP DUP3 DUP3 EQ PUSH2 0x19AA JUMP JUMPDEST SWAP3 SWAP4 POP EQ PUSH2 0x1A32 JUMPI POP PUSH1 0x2 DUP2 ADD SLOAD PUSH1 0x3 DUP3 ADD SLOAD XOR PUSH1 0x1 AND PUSH2 0x1A20 JUMPI SLOAD PUSH1 0x1 PUSH1 0x1 PUSH1 0xA0 SHL SUB AND JUMPDEST PUSH1 0x1 PUSH1 0x1 PUSH1 0xA0 SHL SUB AND SWAP1 JUMP JUMPDEST PUSH1 0x1 ADD SLOAD PUSH1 0x1 PUSH1 0x1 PUSH1 0xA0 SHL SUB AND PUSH2 0x1A14 JUMP JUMPDEST SWAP1 POP SWAP1 JUMP JUMPDEST DUP2 DUP2 SWAP3 SWAP4 SWAP5 POP EQ PUSH2 0x1AB6 JUMPI PUSH1 0x1 DUP3 EQ SWAP2 DUP3 PUSH2 0x1AAB JUMPI JUMPDEST DUP3 ISZERO PUSH2 0x1A8F JUMPI JUMPDEST DUP3 ISZERO PUSH2 0x1A71 JUMPI JUMPDEST POP POP PUSH2 0x1973 JUMPI PUSH1 0x1 ADD SLOAD PUSH1 0x1 PUSH1 0x1 PUSH1 0xA0 SHL SUB AND SWAP1 JUMP JUMPDEST PUSH1 0x3 EQ SWAP2 POP DUP2 PUSH2 0x1A84 JUMPI JUMPDEST POP CODESIZE DUP1 PUSH2 0x1A5B JUMP JUMPDEST PUSH1 0x2 SWAP2 POP EQ CODESIZE PUSH2 0x1A7C JUMP JUMPDEST SWAP2 POP PUSH1 0x2 DUP3 EQ DUP1 PUSH2 0x1AA1 JUMPI JUMPDEST SWAP2 PUSH2 0x1A54 JUMP JUMPDEST POP PUSH1 0x1 DUP2 EQ PUSH2 0x1A9B JUMP JUMPDEST PUSH1 0x3 DUP3 EQ SWAP3 POP PUSH2 0x1A4D JUMP JUMPDEST POP POP POP PUSH1 0x0 SWAP1 JUMP INVALID LOG2 PUSH5 0x6970667358 0x22 SLT KECCAK256 0xA9 0xCA SUB PUSH6 0xB010618B2E6C OR 0xD2 0xE7 SWAP16 MSIZE SWAP14 SUB PUSH21 0x1F3ED05FE6C9CAA43AAD13D3A48864736F6C634300 ADDMOD SHR STOP CALLER "
        },
        "methodIdentifiers": {
          "FEE_BPS()": "bf333f2c",
          "MAX_STAKE()": "c98517c5",
          "MIN_STAKE()": "cb1c2b5c",
          "TIMEOUT()": "f56f48f2",
          "cancelGame(uint256)": "69958ab9",
          "claimTimeout(uint256)": "86e773f1",
          "createGame(bytes32,uint8,bool)": "52038e19",
          "feeRecipient()": "46904840",
          "games(uint256)": "117a5b90",
          "getGame(uint256)": "a2f77bcc",
          "getOpenGames()": "e75d7e3e",
          "joinGame(uint256,bytes32)": "ac952671",
          "nextGameId()": "b135bbb0",
          "openGameIds(uint256)": "ebd8ebce",
          "revealMove(uint256,uint8,string)": "bd675c0e",
          "submitNextRound(uint256,bytes32)": "138d16ac"
        }
      }
    }
  }
}