{
  "_format": "hh-sol-artifact-1",
  "contractName": "CeloDuels",
  "sourceName": "contracts/CeloDuels.sol",
  "abi": [
    {
      "inputs": [
        {
          "internalType": "address",
          "name": "_cUSD",
          "type": "address"
        },
        {
          "internalType": "address",
          "name": "_feeRecipient",
          "type": "address"
        }
      ],
      "stateMutability": "nonpayable",
      "type": "constructor"
    },
    {
      "anonymous": false,
      "inputs": [
        {
          "indexed": true,
          "internalType": "uint256",
          "name": "gameId",
          "type": "uint256"
        }
      ],
      "name": "GameCancelled",
      "type": "event"
    },
    {
      "anonymous": false,
      "inputs": [
        {
          "indexed": true,
          "internalType": "uint256",
          "name": "gameId",
          "type": "uint256"
        },
        {
          "indexed": true,
          "internalType": "address",
          "name": "player1",
          "type": "address"
        }
      ],
      "name": "GameCreated",
      "type": "event"
    },
    {
      "anonymous": false,
      "inputs": [
        {
          "indexed": true,
          "internalType": "uint256",
          "name": "gameId",
          "type": "uint256"
        },
        {
          "indexed": true,
          "internalType": "address",
          "name": "player2",
          "type": "address"
        }
      ],
      "name": "GameJoined",
      "type": "event"
    },
    {
      "anonymous": false,
      "inputs": [
        {
          "indexed": true,
          "internalType": "uint256",
          "name": "gameId",
          "type": "uint256"
        },
        {
          "indexed": true,
          "internalType": "address",
          "name": "winner",
          "type": "address"
        },
        {
          "indexed": false,
          "internalType": "uint256",
          "name": "prize",
          "type": "uint256"
        }
      ],
      "name": "GameSettled",
      "type": "event"
    },
    {
      "anonymous": false,
      "inputs": [
        {
          "indexed": true,
          "internalType": "uint256",
          "name": "gameId",
          "type": "uint256"
        },
        {
          "indexed": true,
          "internalType": "address",
          "name": "player",
          "type": "address"
        },
        {
          "indexed": false,
          "internalType": "enum CeloDuels.Move",
          "name": "move",
          "type": "uint8"
        }
      ],
      "name": "MoveRevealed",
      "type": "event"
    },
    {
      "inputs": [],
      "name": "FEE_BPS",
      "outputs": [
        {
          "internalType": "uint256",
          "name": "",
          "type": "uint256"
        }
      ],
      "stateMutability": "view",
      "type": "function"
    },
    {
      "inputs": [],
      "name": "STAKE",
      "outputs": [
        {
          "internalType": "uint256",
          "name": "",
          "type": "uint256"
        }
      ],
      "stateMutability": "view",
      "type": "function"
    },
    {
      "inputs": [],
      "name": "TIMEOUT",
      "outputs": [
        {
          "internalType": "uint256",
          "name": "",
          "type": "uint256"
        }
      ],
      "stateMutability": "view",
      "type": "function"
    },
    {
      "inputs": [],
      "name": "cUSD",
      "outputs": [
        {
          "internalType": "contract IERC20",
          "name": "",
          "type": "address"
        }
      ],
      "stateMutability": "view",
      "type": "function"
    },
    {
      "inputs": [
        {
          "internalType": "uint256",
          "name": "_gameId",
          "type": "uint256"
        }
      ],
      "name": "claimTimeout",
      "outputs": [],
      "stateMutability": "nonpayable",
      "type": "function"
    },
    {
      "inputs": [
        {
          "internalType": "bytes32",
          "name": "_hash",
          "type": "bytes32"
        }
      ],
      "name": "createGame",
      "outputs": [
        {
          "internalType": "uint256",
          "name": "",
          "type": "uint256"
        }
      ],
      "stateMutability": "nonpayable",
      "type": "function"
    },
    {
      "inputs": [],
      "name": "feeRecipient",
      "outputs": [
        {
          "internalType": "address",
          "name": "",
          "type": "address"
        }
      ],
      "stateMutability": "view",
      "type": "function"
    },
    {
      "inputs": [
        {
          "internalType": "uint256",
          "name": "",
          "type": "uint256"
        }
      ],
      "name": "games",
      "outputs": [
        {
          "internalType": "address",
          "name": "player1",
          "type": "address"
        },
        {
          "internalType": "address",
          "name": "player2",
          "type": "address"
        },
        {
          "internalType": "bytes32",
          "name": "hash1",
          "type": "bytes32"
        },
        {
          "internalType": "bytes32",
          "name": "hash2",
          "type": "bytes32"
        },
        {
          "internalType": "enum CeloDuels.Move",
          "name": "move1",
          "type": "uint8"
        },
        {
          "internalType": "enum CeloDuels.Move",
          "name": "move2",
          "type": "uint8"
        },
        {
          "internalType": "enum CeloDuels.GameState",
          "name": "state",
          "type": "uint8"
        },
        {
          "internalType": "uint256",
          "name": "joinedAt",
          "type": "uint256"
        }
      ],
      "stateMutability": "view",
      "type": "function"
    },
    {
      "inputs": [
        {
          "internalType": "uint256",
          "name": "_gameId",
          "type": "uint256"
        }
      ],
      "name": "getGame",
      "outputs": [
        {
          "components": [
            {
              "internalType": "address",
              "name": "player1",
              "type": "address"
            },
            {
              "internalType": "address",
              "name": "player2",
              "type": "address"
            },
            {
              "internalType": "bytes32",
              "name": "hash1",
              "type": "bytes32"
            },
            {
              "internalType": "bytes32",
              "name": "hash2",
              "type": "bytes32"
            },
            {
              "internalType": "enum CeloDuels.Move",
              "name": "move1",
              "type": "uint8"
            },
            {
              "internalType": "enum CeloDuels.Move",
              "name": "move2",
              "type": "uint8"
            },
            {
              "internalType": "enum CeloDuels.GameState",
              "name": "state",
              "type": "uint8"
            },
            {
              "internalType": "uint256",
              "name": "joinedAt",
              "type": "uint256"
            }
          ],
          "internalType": "struct CeloDuels.Game",
          "name": "",
          "type": "tuple"
        }
      ],
      "stateMutability": "view",
      "type": "function"
    },
    {
      "inputs": [
        {
          "internalType": "uint256",
          "name": "_gameId",
          "type": "uint256"
        },
        {
          "internalType": "bytes32",
          "name": "_hash",
          "type": "bytes32"
        }
      ],
      "name": "joinGame",
      "outputs": [],
      "stateMutability": "nonpayable",
      "type": "function"
    },
    {
      "inputs": [],
      "name": "nextGameId",
      "outputs": [
        {
          "internalType": "uint256",
          "name": "",
          "type": "uint256"
        }
      ],
      "stateMutability": "view",
      "type": "function"
    },
    {
      "inputs": [
        {
          "internalType": "uint256",
          "name": "_gameId",
          "type": "uint256"
        },
        {
          "internalType": "enum CeloDuels.Move",
          "name": "_move",
          "type": "uint8"
        },
        {
          "internalType": "string",
          "name": "_salt",
          "type": "string"
        }
      ],
      "name": "revealMove",
      "outputs": [],
      "stateMutability": "nonpayable",
      "type": "function"
    }
  ],
  "bytecode": "0x60c060405234801561001057600080fd5b50604051612afe380380612afe83398181016040528101906100329190610104565b8173ffffffffffffffffffffffffffffffffffffffff1660808173ffffffffffffffffffffffffffffffffffffffff16815250508073ffffffffffffffffffffffffffffffffffffffff1660a08173ffffffffffffffffffffffffffffffffffffffff16815250505050610144565b600080fd5b600073ffffffffffffffffffffffffffffffffffffffff82169050919050565b60006100d1826100a6565b9050919050565b6100e1816100c6565b81146100ec57600080fd5b50565b6000815190506100fe816100d8565b92915050565b6000806040838503121561011b5761011a6100a1565b5b6000610129858286016100ef565b925050602061013a858286016100ef565b9150509250929050565b60805160a0516129486101b66000396000818161067f015261194a0152600081816103150152818161033b01528181610873015281816109cf01528181610aab01528181610b7601528181610f3c015281816117730152818161183e0152818161190e01526119cd01526129486000f3fe608060405234801561001057600080fd5b50600436106100b45760003560e01c8063a2f77bcc11610071578063a2f77bcc14610196578063ac952671146101c6578063b135bbb0146101e2578063bd675c0e14610200578063bf333f2c1461021c578063f56f48f21461023a576100b4565b8063117a5b90146100b9578063125fdbbc146100f05780631fccf6721461010e578063457391e51461012c578063469048401461015c57806386e773f11461017a575b600080fd5b6100d360048036038101906100ce9190611d12565b610258565b6040516100e7989796959493929190611e67565b60405180910390f35b6100f8610307565b6040516101059190611ee5565b60405180910390f35b610116610313565b6040516101239190611f5f565b60405180910390f35b61014660048036038101906101419190611fa6565b610337565b6040516101539190611ee5565b60405180910390f35b61016461067d565b6040516101719190611fd3565b60405180910390f35b610194600480360381019061018f9190611d12565b6106a1565b005b6101b060048036038101906101ab9190611d12565b610c72565b6040516101bd91906120db565b60405180910390f35b6101e060048036038101906101db91906120f7565b610e1a565b005b6101ea6110ec565b6040516101f79190611ee5565b60405180910390f35b61021a600480360381019061021591906121c1565b6110f2565b005b61022461162d565b6040516102319190611ee5565b60405180910390f35b610242611632565b60405161024f9190611ee5565b60405180910390f35b60006020528060005260406000206000915090508060000160009054906101000a900473ffffffffffffffffffffffffffffffffffffffff16908060010160009054906101000a900473ffffffffffffffffffffffffffffffffffffffff16908060020154908060030154908060040160009054906101000a900460ff16908060040160019054906101000a900460ff16908060040160029054906101000a900460ff16908060050154905088565b67016345785d8a000081565b7f000000000000000000000000000000000000000000000000000000000000000081565b60007f000000000000000000000000000000000000000000000000000000000000000073ffffffffffffffffffffffffffffffffffffffff166323b872dd333067016345785d8a00006040518463ffffffff1660e01b815260040161039e93929190612235565b6020604051808303816000875af11580156103bd573d6000803e3d6000fd5b505050506040513d601f19601f820116820180604052508101906103e191906122a4565b610420576040517f08c379a00000000000000000000000000000000000000000000000000000000081526004016104179061232e565b60405180910390fd5b6000600160008154809291906104359061237d565b9190505590506040518061010001604052803373ffffffffffffffffffffffffffffffffffffffff168152602001600073ffffffffffffffffffffffffffffffffffffffff1681526020018481526020016000801b8152602001600060038111156104a3576104a2611d99565b5b8152602001600060038111156104bc576104bb611d99565b5b8152602001600060048111156104d5576104d4611d99565b5b8152602001600081525060008083815260200190815260200160002060008201518160000160006101000a81548173ffffffffffffffffffffffffffffffffffffffff021916908373ffffffffffffffffffffffffffffffffffffffff16021790555060208201518160010160006101000a81548173ffffffffffffffffffffffffffffffffffffffff021916908373ffffffffffffffffffffffffffffffffffffffff160217905550604082015181600201556060820151816003015560808201518160040160006101000a81548160ff021916908360038111156105be576105bd611d99565b5b021790555060a08201518160040160016101000a81548160ff021916908360038111156105ee576105ed611d99565b5b021790555060c08201518160040160026101000a81548160ff0219169083600481111561061e5761061d611d99565b5b021790555060e082015181600501559050503373ffffffffffffffffffffffffffffffffffffffff16817fc3e0f84839dc888c892a013d10c8f9d6dc05a21a879d0ce468ca558013e9121c60405160405180910390a380915050919050565b7f000000000000000000000000000000000000000000000000000000000000000081565b60008060008381526020019081526020016000209050600160048111156106cb576106ca611d99565b5b8160040160029054906101000a900460ff1660048111156106ef576106ee611d99565b5b148061073057506002600481111561070a57610709611d99565b5b8160040160029054906101000a900460ff16600481111561072e5761072d611d99565b5b145b61076f576040517f08c379a000000000000000000000000000000000000000000000000000000000815260040161076690612411565b60405180910390fd5b6201518081600501546107829190612431565b4210156107c4576040517f08c379a00000000000000000000000000000000000000000000000000000000081526004016107bb906124b1565b60405180910390fd5b60048160040160026101000a81548160ff021916908360048111156107ec576107eb611d99565b5b02179055506000600381111561080557610804611d99565b5b8160040160009054906101000a900460ff16600381111561082957610828611d99565b5b1415801561086c57506000600381111561084657610845611d99565b5b8160040160019054906101000a900460ff16600381111561086a57610869611d99565b5b145b1561094d577f000000000000000000000000000000000000000000000000000000000000000073ffffffffffffffffffffffffffffffffffffffff1663a9059cbb8260000160009054906101000a900473ffffffffffffffffffffffffffffffffffffffff16600267016345785d8a00006108e791906124d1565b6040518363ffffffff1660e01b8152600401610904929190612513565b6020604051808303816000875af1158015610923573d6000803e3d6000fd5b505050506040513d601f19601f8201168201806040525081019061094791906122a4565b50610c41565b6000600381111561096157610960611d99565b5b8160040160019054906101000a900460ff16600381111561098557610984611d99565b5b141580156109c85750600060038111156109a2576109a1611d99565b5b8160040160009054906101000a900460ff1660038111156109c6576109c5611d99565b5b145b15610aa9577f000000000000000000000000000000000000000000000000000000000000000073ffffffffffffffffffffffffffffffffffffffff1663a9059cbb8260010160009054906101000a900473ffffffffffffffffffffffffffffffffffffffff16600267016345785d8a0000610a4391906124d1565b6040518363ffffffff1660e01b8152600401610a60929190612513565b6020604051808303816000875af1158015610a7f573d6000803e3d6000fd5b505050506040513d601f19601f82011682018060405250810190610aa391906122a4565b50610c40565b7f000000000000000000000000000000000000000000000000000000000000000073ffffffffffffffffffffffffffffffffffffffff1663a9059cbb8260000160009054906101000a900473ffffffffffffffffffffffffffffffffffffffff1667016345785d8a00006040518363ffffffff1660e01b8152600401610b30929190612513565b6020604051808303816000875af1158015610b4f573d6000803e3d6000fd5b505050506040513d601f19601f82011682018060405250810190610b7391906122a4565b507f000000000000000000000000000000000000000000000000000000000000000073ffffffffffffffffffffffffffffffffffffffff1663a9059cbb8260010160009054906101000a900473ffffffffffffffffffffffffffffffffffffffff1667016345785d8a00006040518363ffffffff1660e01b8152600401610bfb929190612513565b6020604051808303816000875af1158015610c1a573d6000803e3d6000fd5b505050506040513d601f19601f82011682018060405250810190610c3e91906122a4565b505b5b817f681705fdbd93dba3b679fd712577e9a86d57c5551c520f8c74857deb57f9623f60405160405180910390a25050565b610c7a611c25565b600080838152602001908152602001600020604051806101000160405290816000820160009054906101000a900473ffffffffffffffffffffffffffffffffffffffff1673ffffffffffffffffffffffffffffffffffffffff1673ffffffffffffffffffffffffffffffffffffffff1681526020016001820160009054906101000a900473ffffffffffffffffffffffffffffffffffffffff1673ffffffffffffffffffffffffffffffffffffffff1673ffffffffffffffffffffffffffffffffffffffff16815260200160028201548152602001600382015481526020016004820160009054906101000a900460ff166003811115610d7d57610d7c611d99565b5b6003811115610d8f57610d8e611d99565b5b81526020016004820160019054906101000a900460ff166003811115610db857610db7611d99565b5b6003811115610dca57610dc9611d99565b5b81526020016004820160029054906101000a900460ff166004811115610df357610df2611d99565b5b6004811115610e0557610e04611d99565b5b81526020016005820154815250509050919050565b6000806000848152602001908152602001600020905060006004811115610e4457610e43611d99565b5b8160040160029054906101000a900460ff166004811115610e6857610e67611d99565b5b14610ea8576040517f08c379a0000000000000000000000000000000000000000000000000000000008152600401610e9f90612588565b60405180910390fd5b8060000160009054906101000a900473ffffffffffffffffffffffffffffffffffffffff1673ffffffffffffffffffffffffffffffffffffffff163373ffffffffffffffffffffffffffffffffffffffff1603610f3a576040517f08c379a0000000000000000000000000000000000000000000000000000000008152600401610f31906125f4565b60405180910390fd5b7f000000000000000000000000000000000000000000000000000000000000000073ffffffffffffffffffffffffffffffffffffffff166323b872dd333067016345785d8a00006040518463ffffffff1660e01b8152600401610f9f93929190612235565b6020604051808303816000875af1158015610fbe573d6000803e3d6000fd5b505050506040513d601f19601f82011682018060405250810190610fe291906122a4565b611021576040517f08c379a00000000000000000000000000000000000000000000000000000000081526004016110189061232e565b60405180910390fd5b338160010160006101000a81548173ffffffffffffffffffffffffffffffffffffffff021916908373ffffffffffffffffffffffffffffffffffffffff16021790555081816003018190555060018160040160026101000a81548160ff0219169083600481111561109557611094611d99565b5b02179055504281600501819055503373ffffffffffffffffffffffffffffffffffffffff16837f45c4f9cbafe186141862608c493f28b823fde4c2142bedc3f5169961a73fdd2260405160405180910390a3505050565b60015481565b600080600086815260200190815260200160002090506001600481111561111c5761111b611d99565b5b8160040160029054906101000a900460ff1660048111156111405761113f611d99565b5b148061118157506002600481111561115b5761115a611d99565b5b8160040160029054906101000a900460ff16600481111561117f5761117e611d99565b5b145b6111c0576040517f08c379a00000000000000000000000000000000000000000000000000000000081526004016111b790612411565b60405180910390fd5b600060038111156111d4576111d3611d99565b5b8460038111156111e7576111e6611d99565b5b03611227576040517f08c379a000000000000000000000000000000000000000000000000000000000815260040161121e90612660565b60405180910390fd5b600084848460405160200161123e939291906126f5565b6040516020818303038152906040528051906020012090508160000160009054906101000a900473ffffffffffffffffffffffffffffffffffffffff1673ffffffffffffffffffffffffffffffffffffffff163373ffffffffffffffffffffffffffffffffffffffff160361139c57600060038111156112c1576112c0611d99565b5b8260040160009054906101000a900460ff1660038111156112e5576112e4611d99565b5b14611325576040517f08c379a000000000000000000000000000000000000000000000000000000000815260040161131c9061276b565b60405180910390fd5b8160020154811461136b576040517f08c379a0000000000000000000000000000000000000000000000000000000008152600401611362906127d7565b60405180910390fd5b848260040160006101000a81548160ff0219169083600381111561139257611391611d99565b5b021790555061151e565b8160010160009054906101000a900473ffffffffffffffffffffffffffffffffffffffff1673ffffffffffffffffffffffffffffffffffffffff163373ffffffffffffffffffffffffffffffffffffffff16036114e2576000600381111561140757611406611d99565b5b8260040160019054906101000a900460ff16600381111561142b5761142a611d99565b5b1461146b576040517f08c379a00000000000000000000000000000000000000000000000000000000081526004016114629061276b565b60405180910390fd5b816003015481146114b1576040517f08c379a00000000000000000000000000000000000000000000000000000000081526004016114a8906127d7565b60405180910390fd5b848260040160016101000a81548160ff021916908360038111156114d8576114d7611d99565b5b021790555061151d565b6040517f08c379a000000000000000000000000000000000000000000000000000000000815260040161151490612843565b60405180910390fd5b5b3373ffffffffffffffffffffffffffffffffffffffff16867fdd17665bf97c2a169e97f4f62f36023bf40807eb797a922864394a910d5c37c8876040516115659190612863565b60405180910390a360028260040160026101000a81548160ff0219169083600481111561159557611594611d99565b5b0217905550600060038111156115ae576115ad611d99565b5b8260040160009054906101000a900460ff1660038111156115d2576115d1611d99565b5b141580156116165750600060038111156115ef576115ee611d99565b5b8260040160019054906101000a900460ff16600381111561161357611612611d99565b5b14155b156116255761162486611639565b5b505050505050565b606481565b6201518081565b6000806000838152602001908152602001600020905060038160040160026101000a81548160ff0219169083600481111561167757611676611d99565b5b021790555060006116f48260000160009054906101000a900473ffffffffffffffffffffffffffffffffffffffff168360010160009054906101000a900473ffffffffffffffffffffffffffffffffffffffff168460040160009054906101000a900460ff168560040160019054906101000a900460ff16611ac2565b90506000600267016345785d8a000061170d91906124d1565b9050600061271060648361172191906124d1565b61172b91906128ad565b90506000818361173b91906128de565b9050600073ffffffffffffffffffffffffffffffffffffffff168473ffffffffffffffffffffffffffffffffffffffff160361190c577f000000000000000000000000000000000000000000000000000000000000000073ffffffffffffffffffffffffffffffffffffffff1663a9059cbb8660000160009054906101000a900473ffffffffffffffffffffffffffffffffffffffff1667016345785d8a00006040518363ffffffff1660e01b81526004016117f8929190612513565b6020604051808303816000875af1158015611817573d6000803e3d6000fd5b505050506040513d601f19601f8201168201806040525081019061183b91906122a4565b507f000000000000000000000000000000000000000000000000000000000000000073ffffffffffffffffffffffffffffffffffffffff1663a9059cbb8660010160009054906101000a900473ffffffffffffffffffffffffffffffffffffffff1667016345785d8a00006040518363ffffffff1660e01b81526004016118c3929190612513565b6020604051808303816000875af11580156118e2573d6000803e3d6000fd5b505050506040513d601f19601f8201168201806040525081019061190691906122a4565b50611a6b565b7f000000000000000000000000000000000000000000000000000000000000000073ffffffffffffffffffffffffffffffffffffffff1663a9059cbb7f0000000000000000000000000000000000000000000000000000000000000000846040518363ffffffff1660e01b8152600401611987929190612513565b6020604051808303816000875af11580156119a6573d6000803e3d6000fd5b505050506040513d601f19601f820116820180604052508101906119ca91906122a4565b507f000000000000000000000000000000000000000000000000000000000000000073ffffffffffffffffffffffffffffffffffffffff1663a9059cbb85836040518363ffffffff1660e01b8152600401611a26929190612513565b6020604051808303816000875af1158015611a45573d6000803e3d6000fd5b505050506040513d601f19601f82011682018060405250810190611a6991906122a4565b505b8373ffffffffffffffffffffffffffffffffffffffff16867f05da8c4db77b35635ce26b87fbcc7380ff80950dc26b8f0a41e2309d4adb72a183604051611ab29190611ee5565b60405180910390a3505050505050565b6000816003811115611ad757611ad6611d99565b5b836003811115611aea57611ae9611d99565b5b03611af85760009050611c1d565b60016003811115611b0c57611b0b611d99565b5b836003811115611b1f57611b1e611d99565b5b148015611b4f5750600380811115611b3a57611b39611d99565b5b826003811115611b4d57611b4c611d99565b5b145b80611bae575060026003811115611b6957611b68611d99565b5b836003811115611b7c57611b7b611d99565b5b148015611bad575060016003811115611b9857611b97611d99565b5b826003811115611bab57611baa611d99565b5b145b5b80611c0c5750600380811115611bc757611bc6611d99565b5b836003811115611bda57611bd9611d99565b5b148015611c0b575060026003811115611bf657611bf5611d99565b5b826003811115611c0957611c08611d99565b5b145b5b15611c1957849050611c1d565b8390505b949350505050565b604051806101000160405280600073ffffffffffffffffffffffffffffffffffffffff168152602001600073ffffffffffffffffffffffffffffffffffffffff168152602001600080191681526020016000801916815260200160006003811115611c9357611c92611d99565b5b815260200160006003811115611cac57611cab611d99565b5b815260200160006004811115611cc557611cc4611d99565b5b8152602001600081525090565b600080fd5b600080fd5b6000819050919050565b611cef81611cdc565b8114611cfa57600080fd5b50565b600081359050611d0c81611ce6565b92915050565b600060208284031215611d2857611d27611cd2565b5b6000611d3684828501611cfd565b91505092915050565b600073ffffffffffffffffffffffffffffffffffffffff82169050919050565b6000611d6a82611d3f565b9050919050565b611d7a81611d5f565b82525050565b6000819050919050565b611d9381611d80565b82525050565b7f4e487b7100000000000000000000000000000000000000000000000000000000600052602160045260246000fd5b60048110611dd957611dd8611d99565b5b50565b6000819050611dea82611dc8565b919050565b6000611dfa82611ddc565b9050919050565b611e0a81611def565b82525050565b60058110611e2157611e20611d99565b5b50565b6000819050611e3282611e10565b919050565b6000611e4282611e24565b9050919050565b611e5281611e37565b82525050565b611e6181611cdc565b82525050565b600061010082019050611e7d600083018b611d71565b611e8a602083018a611d71565b611e976040830189611d8a565b611ea46060830188611d8a565b611eb16080830187611e01565b611ebe60a0830186611e01565b611ecb60c0830185611e49565b611ed860e0830184611e58565b9998505050505050505050565b6000602082019050611efa6000830184611e58565b92915050565b6000819050919050565b6000611f25611f20611f1b84611d3f565b611f00565b611d3f565b9050919050565b6000611f3782611f0a565b9050919050565b6000611f4982611f2c565b9050919050565b611f5981611f3e565b82525050565b6000602082019050611f746000830184611f50565b92915050565b611f8381611d80565b8114611f8e57600080fd5b50565b600081359050611fa081611f7a565b92915050565b600060208284031215611fbc57611fbb611cd2565b5b6000611fca84828501611f91565b91505092915050565b6000602082019050611fe86000830184611d71565b92915050565b611ff781611d5f565b82525050565b61200681611d80565b82525050565b61201581611def565b82525050565b61202481611e37565b82525050565b61203381611cdc565b82525050565b610100820160008201516120506000850182611fee565b5060208201516120636020850182611fee565b5060408201516120766040850182611ffd565b5060608201516120896060850182611ffd565b50608082015161209c608085018261200c565b5060a08201516120af60a085018261200c565b5060c08201516120c260c085018261201b565b5060e08201516120d560e085018261202a565b50505050565b6000610100820190506120f16000830184612039565b92915050565b6000806040838503121561210e5761210d611cd2565b5b600061211c85828601611cfd565b925050602061212d85828601611f91565b9150509250929050565b6004811061214457600080fd5b50565b60008135905061215681612137565b92915050565b600080fd5b600080fd5b600080fd5b60008083601f8401126121815761218061215c565b5b8235905067ffffffffffffffff81111561219e5761219d612161565b5b6020830191508360018202830111156121ba576121b9612166565b5b9250929050565b600080600080606085870312156121db576121da611cd2565b5b60006121e987828801611cfd565b94505060206121fa87828801612147565b935050604085013567ffffffffffffffff81111561221b5761221a611cd7565b5b6122278782880161216b565b925092505092959194509250565b600060608201905061224a6000830186611d71565b6122576020830185611d71565b6122646040830184611e58565b949350505050565b60008115159050919050565b6122818161226c565b811461228c57600080fd5b50565b60008151905061229e81612278565b92915050565b6000602082840312156122ba576122b9611cd2565b5b60006122c88482850161228f565b91505092915050565b600082825260208201905092915050565b7f5472616e73666572206661696c65640000000000000000000000000000000000600082015250565b6000612318600f836122d1565b9150612323826122e2565b602082019050919050565b600060208201905081810360008301526123478161230b565b9050919050565b7f4e487b7100000000000000000000000000000000000000000000000000000000600052601160045260246000fd5b600061238882611cdc565b91507fffffffffffffffffffffffffffffffffffffffffffffffffffffffffffffffff82036123ba576123b961234e565b5b600182019050919050565b7f57726f6e67207374617465000000000000000000000000000000000000000000600082015250565b60006123fb600b836122d1565b9150612406826123c5565b602082019050919050565b6000602082019050818103600083015261242a816123ee565b9050919050565b600061243c82611cdc565b915061244783611cdc565b925082820190508082111561245f5761245e61234e565b5b92915050565b7f54696d656f7574206e6f74207265616368656400000000000000000000000000600082015250565b600061249b6013836122d1565b91506124a682612465565b602082019050919050565b600060208201905081810360008301526124ca8161248e565b9050919050565b60006124dc82611cdc565b91506124e783611cdc565b92508282026124f581611cdc565b9150828204841483151761250c5761250b61234e565b5b5092915050565b60006040820190506125286000830185611d71565b6125356020830184611e58565b9392505050565b7f47616d65206e6f74206f70656e00000000000000000000000000000000000000600082015250565b6000612572600d836122d1565b915061257d8261253c565b602082019050919050565b600060208201905081810360008301526125a181612565565b9050919050565b7f43616e6e6f7420706c617920796f757273656c66000000000000000000000000600082015250565b60006125de6014836122d1565b91506125e9826125a8565b602082019050919050565b6000602082019050818103600083015261260d816125d1565b9050919050565b7f496e76616c6964206d6f76650000000000000000000000000000000000000000600082015250565b600061264a600c836122d1565b915061265582612614565b602082019050919050565b600060208201905081810360008301526126798161263d565b9050919050565b60008160f81b9050919050565b600061269882612680565b9050919050565b6126b06126ab82611def565b61268d565b82525050565b600081905092915050565b82818337600083830152505050565b60006126dc83856126b6565b93506126e98385846126c1565b82840190509392505050565b6000612701828661269f565b6001820191506127128284866126d0565b9150819050949350505050565b7f416c72656164792072657665616c656400000000000000000000000000000000600082015250565b60006127556010836122d1565b91506127608261271f565b602082019050919050565b6000602082019050818103600083015261278481612748565b9050919050565b7f48617368206d69736d6174636800000000000000000000000000000000000000600082015250565b60006127c1600d836122d1565b91506127cc8261278b565b602082019050919050565b600060208201905081810360008301526127f0816127b4565b9050919050565b7f4e6f74206120706c617965720000000000000000000000000000000000000000600082015250565b600061282d600c836122d1565b9150612838826127f7565b602082019050919050565b6000602082019050818103600083015261285c81612820565b9050919050565b60006020820190506128786000830184611e01565b92915050565b7f4e487b7100000000000000000000000000000000000000000000000000000000600052601260045260246000fd5b60006128b882611cdc565b91506128c383611cdc565b9250826128d3576128d261287e565b5b828204905092915050565b60006128e982611cdc565b91506128f483611cdc565b925082820390508181111561290c5761290b61234e565b5b9291505056fea2646970667358221220acbdc5bc7f7c297137affdbaff5d324542f41bd6067ad39cd7ac84baa098529e64736f6c634300081c0033",
  "linkReferences": {},
  "deployedLinkReferences": {}
}