{
  "_format": "hh-sol-artifact-1",
  "contractName": "CeloDuelsMulti",
  "sourceName": "contracts/CeloDuels.sol",
  "abi": [
    {
      "inputs": [
        {
          "internalType": "address",
          "name": "_feeRecipient",
          "type": "address"
        }
      ],
      "stateMutability": "nonpayable",
      "type": "constructor"
    },
    {
      "anonymous": false,
      "inputs": [
        {
          "indexed": true,
          "internalType": "uint256",
          "name": "gameId",
          "type": "uint256"
        }
      ],
      "name": "GameCancelled",
      "type": "event"
    },
    {
      "anonymous": false,
      "inputs": [
        {
          "indexed": true,
          "internalType": "uint256",
          "name": "gameId",
          "type": "uint256"
        },
        {
          "indexed": true,
          "internalType": "address",
          "name": "player1",
          "type": "address"
        },
        {
          "indexed": false,
          "internalType": "enum CeloDuelsMulti.GameType",
          "name": "gameType",
          "type": "uint8"
        }
      ],
      "name": "GameCreated",
      "type": "event"
    },
    {
      "anonymous": false,
      "inputs": [
        {
          "indexed": true,
          "internalType": "uint256",
          "name": "gameId",
          "type": "uint256"
        },
        {
          "indexed": true,
          "internalType": "address",
          "name": "player2",
          "type": "address"
        }
      ],
      "name": "GameJoined",
      "type": "event"
    },
    {
      "anonymous": false,
      "inputs": [
        {
          "indexed": true,
          "internalType": "uint256",
          "name": "gameId",
          "type": "uint256"
        },
        {
          "indexed": true,
          "internalType": "address",
          "name": "winner",
          "type": "address"
        },
        {
          "indexed": false,
          "internalType": "uint256",
          "name": "prize",
          "type": "uint256"
        }
      ],
      "name": "GameSettled",
      "type": "event"
    },
    {
      "inputs": [],
      "name": "FEE_BPS",
      "outputs": [
        {
          "internalType": "uint256",
          "name": "",
          "type": "uint256"
        }
      ],
      "stateMutability": "view",
      "type": "function"
    },
    {
      "inputs": [],
      "name": "STAKE",
      "outputs": [
        {
          "internalType": "uint256",
          "name": "",
          "type": "uint256"
        }
      ],
      "stateMutability": "view",
      "type": "function"
    },
    {
      "inputs": [],
      "name": "TIMEOUT",
      "outputs": [
        {
          "internalType": "uint256",
          "name": "",
          "type": "uint256"
        }
      ],
      "stateMutability": "view",
      "type": "function"
    },
    {
      "inputs": [
        {
          "internalType": "uint256",
          "name": "_gameId",
          "type": "uint256"
        }
      ],
      "name": "claimTimeout",
      "outputs": [],
      "stateMutability": "nonpayable",
      "type": "function"
    },
    {
      "inputs": [
        {
          "internalType": "bytes32",
          "name": "_hash",
          "type": "bytes32"
        },
        {
          "internalType": "enum CeloDuelsMulti.GameType",
          "name": "_gameType",
          "type": "uint8"
        }
      ],
      "name": "createGame",
      "outputs": [
        {
          "internalType": "uint256",
          "name": "",
          "type": "uint256"
        }
      ],
      "stateMutability": "payable",
      "type": "function"
    },
    {
      "inputs": [],
      "name": "feeRecipient",
      "outputs": [
        {
          "internalType": "address",
          "name": "",
          "type": "address"
        }
      ],
      "stateMutability": "view",
      "type": "function"
    },
    {
      "inputs": [
        {
          "internalType": "uint256",
          "name": "",
          "type": "uint256"
        }
      ],
      "name": "games",
      "outputs": [
        {
          "internalType": "address payable",
          "name": "player1",
          "type": "address"
        },
        {
          "internalType": "address payable",
          "name": "player2",
          "type": "address"
        },
        {
          "internalType": "bytes32",
          "name": "hash1",
          "type": "bytes32"
        },
        {
          "internalType": "bytes32",
          "name": "hash2",
          "type": "bytes32"
        },
        {
          "internalType": "uint8",
          "name": "move1",
          "type": "uint8"
        },
        {
          "internalType": "uint8",
          "name": "move2",
          "type": "uint8"
        },
        {
          "internalType": "enum CeloDuelsMulti.GameState",
          "name": "state",
          "type": "uint8"
        },
        {
          "internalType": "enum CeloDuelsMulti.GameType",
          "name": "gameType",
          "type": "uint8"
        },
        {
          "internalType": "uint256",
          "name": "joinedAt",
          "type": "uint256"
        }
      ],
      "stateMutability": "view",
      "type": "function"
    },
    {
      "inputs": [
        {
          "internalType": "uint256",
          "name": "_gameId",
          "type": "uint256"
        }
      ],
      "name": "getGame",
      "outputs": [
        {
          "components": [
            {
              "internalType": "address payable",
              "name": "player1",
              "type": "address"
            },
            {
              "internalType": "address payable",
              "name": "player2",
              "type": "address"
            },
            {
              "internalType": "bytes32",
              "name": "hash1",
              "type": "bytes32"
            },
            {
              "internalType": "bytes32",
              "name": "hash2",
              "type": "bytes32"
            },
            {
              "internalType": "uint8",
              "name": "move1",
              "type": "uint8"
            },
            {
              "internalType": "uint8",
              "name": "move2",
              "type": "uint8"
            },
            {
              "internalType": "enum CeloDuelsMulti.GameState",
              "name": "state",
              "type": "uint8"
            },
            {
              "internalType": "enum CeloDuelsMulti.GameType",
              "name": "gameType",
              "type": "uint8"
            },
            {
              "internalType": "uint256",
              "name": "joinedAt",
              "type": "uint256"
            }
          ],
          "internalType": "struct CeloDuelsMulti.Game",
          "name": "",
          "type": "tuple"
        }
      ],
      "stateMutability": "view",
      "type": "function"
    },
    {
      "inputs": [
        {
          "internalType": "uint256",
          "name": "_gameId",
          "type": "uint256"
        },
        {
          "internalType": "bytes32",
          "name": "_hash",
          "type": "bytes32"
        }
      ],
      "name": "joinGame",
      "outputs": [],
      "stateMutability": "payable",
      "type": "function"
    },
    {
      "inputs": [],
      "name": "nextGameId",
      "outputs": [
        {
          "internalType": "uint256",
          "name": "",
          "type": "uint256"
        }
      ],
      "stateMutability": "view",
      "type": "function"
    },
    {
      "inputs": [
        {
          "internalType": "uint256",
          "name": "_gameId",
          "type": "uint256"
        },
        {
          "internalType": "uint8",
          "name": "_move",
          "type": "uint8"
        },
        {
          "internalType": "string",
          "name": "_salt",
          "type": "string"
        }
      ],
      "name": "revealMove",
      "outputs": [],
      "stateMutability": "nonpayable",
      "type": "function"
    }
  ],
  "bytecode": "0x60a060405234801561001057600080fd5b506040516126a23803806126a2833981810160405281019061003291906100cf565b8073ffffffffffffffffffffffffffffffffffffffff1660808173ffffffffffffffffffffffffffffffffffffffff1681525050506100fc565b600080fd5b600073ffffffffffffffffffffffffffffffffffffffff82169050919050565b600061009c82610071565b9050919050565b6100ac81610091565b81146100b757600080fd5b50565b6000815190506100c9816100a3565b92915050565b6000602082840312156100e5576100e461006c565b5b60006100f3848285016100ba565b91505092915050565b60805161258461011e6000396000818161036701526113b801526125846000f3fe60806040526004361061009c5760003560e01c8063ac95267111610064578063ac952671146101a2578063b135bbb0146101be578063bd675c0e146101e9578063bf333f2c14610212578063e671cdae1461023d578063f56f48f21461026d5761009c565b8063117a5b90146100a1578063125fdbbc146100e6578063469048401461011157806386e773f11461013c578063a2f77bcc14610165575b600080fd5b3480156100ad57600080fd5b506100c860048036038101906100c391906119b3565b610298565b6040516100dd99989796959493929190611b24565b60405180910390f35b3480156100f257600080fd5b506100fb61035a565b6040516101089190611bb1565b60405180910390f35b34801561011d57600080fd5b50610126610365565b6040516101339190611bed565b60405180910390f35b34801561014857600080fd5b50610163600480360381019061015e91906119b3565b610389565b005b34801561017157600080fd5b5061018c600480360381019061018791906119b3565b610772565b6040516101999190611d19565b60405180910390f35b6101bc60048036038101906101b79190611d61565b610919565b005b3480156101ca57600080fd5b506101d3610b4d565b6040516101e09190611bb1565b60405180910390f35b3480156101f557600080fd5b50610210600480360381019061020b9190611e32565b610b53565b005b34801561021e57600080fd5b50610227610f36565b6040516102349190611bb1565b60405180910390f35b61025760048036038101906102529190611ecb565b610f3b565b6040516102649190611bb1565b60405180910390f35b34801561027957600080fd5b506102826111fc565b60405161028f9190611bb1565b60405180910390f35b60006020528060005260406000206000915090508060000160009054906101000a900473ffffffffffffffffffffffffffffffffffffffff16908060010160009054906101000a900473ffffffffffffffffffffffffffffffffffffffff16908060020154908060030154908060040160009054906101000a900460ff16908060040160019054906101000a900460ff16908060040160029054906101000a900460ff16908060040160039054906101000a900460ff16908060050154905089565b66038d7ea4c6800081565b7f000000000000000000000000000000000000000000000000000000000000000081565b60008060008381526020019081526020016000209050600160048111156103b3576103b2611a56565b5b8160040160029054906101000a900460ff1660048111156103d7576103d6611a56565b5b14806104185750600260048111156103f2576103f1611a56565b5b8160040160029054906101000a900460ff16600481111561041657610415611a56565b5b145b610457576040517f08c379a000000000000000000000000000000000000000000000000000000000815260040161044e90611f68565b60405180910390fd5b62015180816005015461046a9190611fb7565b4210156104ac576040517f08c379a00000000000000000000000000000000000000000000000000000000081526004016104a390612037565b60405180910390fd5b60048160040160026101000a81548160ff021916908360048111156104d4576104d3611a56565b5b021790555060008160040160009054906101000a900460ff1660ff1614158015610512575060008160040160019054906101000a900460ff1660ff16145b1561059a578060000160009054906101000a900473ffffffffffffffffffffffffffffffffffffffff1673ffffffffffffffffffffffffffffffffffffffff166108fc600266038d7ea4c680006105699190612057565b9081150290604051600060405180830381858888f19350505050158015610594573d6000803e3d6000fd5b50610741565b60008160040160019054906101000a900460ff1660ff16141580156105d3575060008160040160009054906101000a900460ff1660ff16145b1561065b578060010160009054906101000a900473ffffffffffffffffffffffffffffffffffffffff1673ffffffffffffffffffffffffffffffffffffffff166108fc600266038d7ea4c6800061062a9190612057565b9081150290604051600060405180830381858888f19350505050158015610655573d6000803e3d6000fd5b50610740565b8060000160009054906101000a900473ffffffffffffffffffffffffffffffffffffffff1673ffffffffffffffffffffffffffffffffffffffff166108fc66038d7ea4c680009081150290604051600060405180830381858888f193505050501580156106cc573d6000803e3d6000fd5b508060010160009054906101000a900473ffffffffffffffffffffffffffffffffffffffff1673ffffffffffffffffffffffffffffffffffffffff166108fc66038d7ea4c680009081150290604051600060405180830381858888f1935050505015801561073e573d6000803e3d6000fd5b505b5b817f681705fdbd93dba3b679fd712577e9a86d57c5551c520f8c74857deb57f9623f60405160405180910390a25050565b61077a6118cb565b600080838152602001908152602001600020604051806101200160405290816000820160009054906101000a900473ffffffffffffffffffffffffffffffffffffffff1673ffffffffffffffffffffffffffffffffffffffff1673ffffffffffffffffffffffffffffffffffffffff1681526020016001820160009054906101000a900473ffffffffffffffffffffffffffffffffffffffff1673ffffffffffffffffffffffffffffffffffffffff1673ffffffffffffffffffffffffffffffffffffffff16815260200160028201548152602001600382015481526020016004820160009054906101000a900460ff1660ff1660ff1681526020016004820160019054906101000a900460ff1660ff1660ff1681526020016004820160029054906101000a900460ff1660048111156108b7576108b6611a56565b5b60048111156108c9576108c8611a56565b5b81526020016004820160039054906101000a900460ff1660038111156108f2576108f1611a56565b5b600381111561090457610903611a56565b5b81526020016005820154815250509050919050565b600080600084815260200190815260200160002090506000600481111561094357610942611a56565b5b8160040160029054906101000a900460ff16600481111561096757610966611a56565b5b146109a7576040517f08c379a000000000000000000000000000000000000000000000000000000000815260040161099e906120e5565b60405180910390fd5b8060000160009054906101000a900473ffffffffffffffffffffffffffffffffffffffff1673ffffffffffffffffffffffffffffffffffffffff163373ffffffffffffffffffffffffffffffffffffffff1603610a39576040517f08c379a0000000000000000000000000000000000000000000000000000000008152600401610a3090612151565b60405180910390fd5b66038d7ea4c680003414610a82576040517f08c379a0000000000000000000000000000000000000000000000000000000008152600401610a79906121bd565b60405180910390fd5b338160010160006101000a81548173ffffffffffffffffffffffffffffffffffffffff021916908373ffffffffffffffffffffffffffffffffffffffff16021790555081816003018190555060018160040160026101000a81548160ff02191690836004811115610af657610af5611a56565b5b02179055504281600501819055503373ffffffffffffffffffffffffffffffffffffffff16837f45c4f9cbafe186141862608c493f28b823fde4c2142bedc3f5169961a73fdd2260405160405180910390a3505050565b60015481565b6000806000868152602001908152602001600020905060016004811115610b7d57610b7c611a56565b5b8160040160029054906101000a900460ff166004811115610ba157610ba0611a56565b5b1480610be2575060026004811115610bbc57610bbb611a56565b5b8160040160029054906101000a900460ff166004811115610be057610bdf611a56565b5b145b610c21576040517f08c379a0000000000000000000000000000000000000000000000000000000008152600401610c1890611f68565b60405180910390fd5b6000848484604051602001610c3893929190612252565b6040516020818303038152906040528051906020012090508160000160009054906101000a900473ffffffffffffffffffffffffffffffffffffffff1673ffffffffffffffffffffffffffffffffffffffff163373ffffffffffffffffffffffffffffffffffffffff1603610d665760008260040160009054906101000a900460ff1660ff1614610cfe576040517f08c379a0000000000000000000000000000000000000000000000000000000008152600401610cf5906122c8565b60405180910390fd5b81600201548114610d44576040517f08c379a0000000000000000000000000000000000000000000000000000000008152600401610d3b90612334565b60405180910390fd5b848260040160006101000a81548160ff021916908360ff160217905550610eb8565b8160010160009054906101000a900473ffffffffffffffffffffffffffffffffffffffff1673ffffffffffffffffffffffffffffffffffffffff163373ffffffffffffffffffffffffffffffffffffffff1603610e7c5760008260040160019054906101000a900460ff1660ff1614610e14576040517f08c379a0000000000000000000000000000000000000000000000000000000008152600401610e0b906122c8565b60405180910390fd5b81600301548114610e5a576040517f08c379a0000000000000000000000000000000000000000000000000000000008152600401610e5190612334565b60405180910390fd5b848260040160016101000a81548160ff021916908360ff160217905550610eb7565b6040517f08c379a0000000000000000000000000000000000000000000000000000000008152600401610eae906123a0565b60405180910390fd5b5b60028260040160026101000a81548160ff02191690836004811115610ee057610edf611a56565b5b021790555060008260040160009054906101000a900460ff1660ff1614158015610f1f575060008260040160019054906101000a900460ff1660ff1614155b15610f2e57610f2d86611203565b5b505050505050565b606481565b600066038d7ea4c680003414610f86576040517f08c379a0000000000000000000000000000000000000000000000000000000008152600401610f7d906121bd565b60405180910390fd5b600060016000815480929190610f9b906123c0565b9190505590506040518061012001604052803373ffffffffffffffffffffffffffffffffffffffff168152602001600073ffffffffffffffffffffffffffffffffffffffff1681526020018581526020016000801b8152602001600060ff168152602001600060ff1681526020016000600481111561101d5761101c611a56565b5b815260200184600381111561103557611034611a56565b5b8152602001600081525060008083815260200190815260200160002060008201518160000160006101000a81548173ffffffffffffffffffffffffffffffffffffffff021916908373ffffffffffffffffffffffffffffffffffffffff16021790555060208201518160010160006101000a81548173ffffffffffffffffffffffffffffffffffffffff021916908373ffffffffffffffffffffffffffffffffffffffff160217905550604082015181600201556060820151816003015560808201518160040160006101000a81548160ff021916908360ff16021790555060a08201518160040160016101000a81548160ff021916908360ff16021790555060c08201518160040160026101000a81548160ff021916908360048111156111605761115f611a56565b5b021790555060e08201518160040160036101000a81548160ff021916908360038111156111905761118f611a56565b5b021790555061010082015181600501559050503373ffffffffffffffffffffffffffffffffffffffff16817fdd0abcdffc76581d11646898ee4d7f269ca1e0c0b622d072d343100dad83ecb1856040516111ea9190612408565b60405180910390a38091505092915050565b6201518081565b6000806000838152602001908152602001600020905060038160040160026101000a81548160ff0219169083600481111561124157611240611a56565b5b02179055506000611251826114bc565b90506000600266038d7ea4c680006112699190612057565b9050600061271060648361127d9190612057565b6112879190612452565b9050600081836112979190612483565b9050600073ffffffffffffffffffffffffffffffffffffffff168473ffffffffffffffffffffffffffffffffffffffff16036113b6578460000160009054906101000a900473ffffffffffffffffffffffffffffffffffffffff1673ffffffffffffffffffffffffffffffffffffffff166108fc66038d7ea4c680009081150290604051600060405180830381858888f1935050505015801561133e573d6000803e3d6000fd5b508460010160009054906101000a900473ffffffffffffffffffffffffffffffffffffffff1673ffffffffffffffffffffffffffffffffffffffff166108fc66038d7ea4c680009081150290604051600060405180830381858888f193505050501580156113b0573d6000803e3d6000fd5b50611465565b7f000000000000000000000000000000000000000000000000000000000000000073ffffffffffffffffffffffffffffffffffffffff166108fc839081150290604051600060405180830381858888f1935050505015801561141c573d6000803e3d6000fd5b508373ffffffffffffffffffffffffffffffffffffffff166108fc829081150290604051600060405180830381858888f19350505050158015611463573d6000803e3d6000fd5b505b8373ffffffffffffffffffffffffffffffffffffffff16867f05da8c4db77b35635ce26b87fbcc7380ff80950dc26b8f0a41e2309d4adb72a1836040516114ac9190611bb1565b60405180910390a3505050505050565b6000808260040160009054906101000a900460ff16905060008360040160019054906101000a900460ff169050600060038111156114fd576114fc611a56565b5b8460040160039054906101000a900460ff16600381111561152157611520611a56565b5b036115ef578060ff168260ff160361153e576000925050506118c6565b60018260ff16148015611554575060038160ff16145b80611571575060028260ff16148015611570575060018160ff16145b5b8061158e575060038260ff1614801561158d575060028160ff16145b5b156115c1578360000160009054906101000a900473ffffffffffffffffffffffffffffffffffffffff16925050506118c6565b8360010160009054906101000a900473ffffffffffffffffffffffffffffffffffffffff16925050506118c6565b6001600381111561160357611602611a56565b5b8460040160039054906101000a900460ff16600381111561162757611626611a56565b5b036116c4578060ff168260ff1603611644576000925050506118c6565b6000846003015485600201541860001c9050600060028261166591906124b7565b14611694578460010160009054906101000a900473ffffffffffffffffffffffffffffffffffffffff166116ba565b8460000160009054906101000a900473ffffffffffffffffffffffffffffffffffffffff165b93505050506118c6565b600260038111156116d8576116d7611a56565b5b8460040160039054906101000a900460ff1660038111156116fc576116fb611a56565b5b03611804576000818361170f91906124e8565b9050600080600283611721919061251d565b60ff16149050808015611748575060018660040160009054906101000a900460ff1660ff16145b1561177d578560000160009054906101000a900473ffffffffffffffffffffffffffffffffffffffff169450505050506118c6565b8015801561179f575060028660040160009054906101000a900460ff1660ff16145b156117d4578560000160009054906101000a900473ffffffffffffffffffffffffffffffffffffffff169450505050506118c6565b8560010160009054906101000a900473ffffffffffffffffffffffffffffffffffffffff169450505050506118c6565b60038081111561181757611816611a56565b5b8460040160039054906101000a900460ff16600381111561183b5761183a611a56565b5b036118bf578060ff168260ff1603611858576000925050506118c6565b60028260ff1603611891578360000160009054906101000a900473ffffffffffffffffffffffffffffffffffffffff16925050506118c6565b8360010160009054906101000a900473ffffffffffffffffffffffffffffffffffffffff16925050506118c6565b6000925050505b919050565b604051806101200160405280600073ffffffffffffffffffffffffffffffffffffffff168152602001600073ffffffffffffffffffffffffffffffffffffffff1681526020016000801916815260200160008019168152602001600060ff168152602001600060ff1681526020016000600481111561194d5761194c611a56565b5b81526020016000600381111561196657611965611a56565b5b8152602001600081525090565b600080fd5b600080fd5b6000819050919050565b6119908161197d565b811461199b57600080fd5b50565b6000813590506119ad81611987565b92915050565b6000602082840312156119c9576119c8611973565b5b60006119d78482850161199e565b91505092915050565b600073ffffffffffffffffffffffffffffffffffffffff82169050919050565b6000611a0b826119e0565b9050919050565b611a1b81611a00565b82525050565b6000819050919050565b611a3481611a21565b82525050565b600060ff82169050919050565b611a5081611a3a565b82525050565b7f4e487b7100000000000000000000000000000000000000000000000000000000600052602160045260246000fd5b60058110611a9657611a95611a56565b5b50565b6000819050611aa782611a85565b919050565b6000611ab782611a99565b9050919050565b611ac781611aac565b82525050565b60048110611ade57611add611a56565b5b50565b6000819050611aef82611acd565b919050565b6000611aff82611ae1565b9050919050565b611b0f81611af4565b82525050565b611b1e8161197d565b82525050565b600061012082019050611b3a600083018c611a12565b611b47602083018b611a12565b611b54604083018a611a2b565b611b616060830189611a2b565b611b6e6080830188611a47565b611b7b60a0830187611a47565b611b8860c0830186611abe565b611b9560e0830185611b06565b611ba3610100830184611b15565b9a9950505050505050505050565b6000602082019050611bc66000830184611b15565b92915050565b6000611bd7826119e0565b9050919050565b611be781611bcc565b82525050565b6000602082019050611c026000830184611bde565b92915050565b611c1181611a00565b82525050565b611c2081611a21565b82525050565b611c2f81611a3a565b82525050565b611c3e81611aac565b82525050565b611c4d81611af4565b82525050565b611c5c8161197d565b82525050565b61012082016000820151611c796000850182611c08565b506020820151611c8c6020850182611c08565b506040820151611c9f6040850182611c17565b506060820151611cb26060850182611c17565b506080820151611cc56080850182611c26565b5060a0820151611cd860a0850182611c26565b5060c0820151611ceb60c0850182611c35565b5060e0820151611cfe60e0850182611c44565b50610100820151611d13610100850182611c53565b50505050565b600061012082019050611d2f6000830184611c62565b92915050565b611d3e81611a21565b8114611d4957600080fd5b50565b600081359050611d5b81611d35565b92915050565b60008060408385031215611d7857611d77611973565b5b6000611d868582860161199e565b9250506020611d9785828601611d4c565b9150509250929050565b611daa81611a3a565b8114611db557600080fd5b50565b600081359050611dc781611da1565b92915050565b600080fd5b600080fd5b600080fd5b60008083601f840112611df257611df1611dcd565b5b8235905067ffffffffffffffff811115611e0f57611e0e611dd2565b5b602083019150836001820283011115611e2b57611e2a611dd7565b5b9250929050565b60008060008060608587031215611e4c57611e4b611973565b5b6000611e5a8782880161199e565b9450506020611e6b87828801611db8565b935050604085013567ffffffffffffffff811115611e8c57611e8b611978565b5b611e9887828801611ddc565b925092505092959194509250565b60048110611eb357600080fd5b50565b600081359050611ec581611ea6565b92915050565b60008060408385031215611ee257611ee1611973565b5b6000611ef085828601611d4c565b9250506020611f0185828601611eb6565b9150509250929050565b600082825260208201905092915050565b7f57726f6e67207374617465000000000000000000000000000000000000000000600082015250565b6000611f52600b83611f0b565b9150611f5d82611f1c565b602082019050919050565b60006020820190508181036000830152611f8181611f45565b9050919050565b7f4e487b7100000000000000000000000000000000000000000000000000000000600052601160045260246000fd5b6000611fc28261197d565b9150611fcd8361197d565b9250828201905080821115611fe557611fe4611f88565b5b92915050565b7f54696d656f7574206e6f74207265616368656400000000000000000000000000600082015250565b6000612021601383611f0b565b915061202c82611feb565b602082019050919050565b6000602082019050818103600083015261205081612014565b9050919050565b60006120628261197d565b915061206d8361197d565b925082820261207b8161197d565b9150828204841483151761209257612091611f88565b5b5092915050565b7f47616d65206e6f74206f70656e00000000000000000000000000000000000000600082015250565b60006120cf600d83611f0b565b91506120da82612099565b602082019050919050565b600060208201905081810360008301526120fe816120c2565b9050919050565b7f43616e6e6f7420706c617920796f757273656c66000000000000000000000000600082015250565b600061213b601483611f0b565b915061214682612105565b602082019050919050565b6000602082019050818103600083015261216a8161212e565b9050919050565b7f4d7573742073656e642065786163746c7920302e3030312043454c4f00000000600082015250565b60006121a7601c83611f0b565b91506121b282612171565b602082019050919050565b600060208201905081810360008301526121d68161219a565b9050919050565b60008160f81b9050919050565b60006121f5826121dd565b9050919050565b61220d61220882611a3a565b6121ea565b82525050565b600081905092915050565b82818337600083830152505050565b60006122398385612213565b935061224683858461221e565b82840190509392505050565b600061225e82866121fc565b60018201915061226f82848661222d565b9150819050949350505050565b7f416c72656164792072657665616c656400000000000000000000000000000000600082015250565b60006122b2601083611f0b565b91506122bd8261227c565b602082019050919050565b600060208201905081810360008301526122e1816122a5565b9050919050565b7f48617368206d69736d6174636800000000000000000000000000000000000000600082015250565b600061231e600d83611f0b565b9150612329826122e8565b602082019050919050565b6000602082019050818103600083015261234d81612311565b9050919050565b7f4e6f74206120706c617965720000000000000000000000000000000000000000600082015250565b600061238a600c83611f0b565b915061239582612354565b602082019050919050565b600060208201905081810360008301526123b98161237d565b9050919050565b60006123cb8261197d565b91507fffffffffffffffffffffffffffffffffffffffffffffffffffffffffffffffff82036123fd576123fc611f88565b5b600182019050919050565b600060208201905061241d6000830184611b06565b92915050565b7f4e487b7100000000000000000000000000000000000000000000000000000000600052601260045260246000fd5b600061245d8261197d565b91506124688361197d565b92508261247857612477612423565b5b828204905092915050565b600061248e8261197d565b91506124998361197d565b92508282039050818111156124b1576124b0611f88565b5b92915050565b60006124c28261197d565b91506124cd8361197d565b9250826124dd576124dc612423565b5b828206905092915050565b60006124f382611a3a565b91506124fe83611a3a565b9250828201905060ff81111561251757612516611f88565b5b92915050565b600061252882611a3a565b915061253383611a3a565b92508261254357612542612423565b5b82820690509291505056fea2646970667358221220b1bed6d66a835099dc7f03832342d84965d03055c48cdedaf855acbcb3b5a00564736f6c634300081c0033",
  "linkReferences": {},
  "deployedLinkReferences": {}
}